{
  "contractName": "TTTTokenSell",
  "abi": [
    {
      "constant": true,
      "inputs": [],
      "name": "endsAt",
      "outputs": [
        {
          "name": "",
          "type": "uint256"
        }
      ],
      "payable": false,
      "stateMutability": "view",
      "type": "function"
    },
    {
      "constant": true,
      "inputs": [],
      "name": "presaleAddress",
      "outputs": [
        {
          "name": "",
          "type": "address"
        }
      ],
      "payable": false,
      "stateMutability": "view",
      "type": "function"
    },
    {
      "constant": false,
      "inputs": [
        {
          "name": "addrs",
          "type": "address[]"
        }
      ],
      "name": "removeAddressesFromWhitelist",
      "outputs": [
        {
          "name": "success",
          "type": "bool"
        }
      ],
      "payable": false,
      "stateMutability": "nonpayable",
      "type": "function"
    },
    {
      "constant": false,
      "inputs": [
        {
          "name": "addr",
          "type": "address"
        }
      ],
      "name": "removeAddressFromWhitelist",
      "outputs": [
        {
          "name": "success",
          "type": "bool"
        }
      ],
      "payable": false,
      "stateMutability": "nonpayable",
      "type": "function"
    },
    {
      "constant": true,
      "inputs": [],
      "name": "currentPhaseAddress",
      "outputs": [
        {
          "name": "",
          "type": "address"
        }
      ],
      "payable": false,
      "stateMutability": "view",
      "type": "function"
    },
    {
      "constant": true,
      "inputs": [],
      "name": "decimals",
      "outputs": [
        {
          "name": "",
          "type": "uint256"
        }
      ],
      "payable": false,
      "stateMutability": "view",
      "type": "function"
    },
    {
      "constant": true,
      "inputs": [],
      "name": "crowdsaleAddress",
      "outputs": [
        {
          "name": "",
          "type": "address"
        }
      ],
      "payable": false,
      "stateMutability": "view",
      "type": "function"
    },
    {
      "constant": false,
      "inputs": [],
      "name": "unpause",
      "outputs": [],
      "payable": false,
      "stateMutability": "nonpayable",
      "type": "function"
    },
    {
      "constant": true,
      "inputs": [],
      "name": "weiRaised",
      "outputs": [
        {
          "name": "",
          "type": "uint256"
        }
      ],
      "payable": false,
      "stateMutability": "view",
      "type": "function"
    },
    {
      "constant": true,
      "inputs": [],
      "name": "wallet",
      "outputs": [
        {
          "name": "",
          "type": "address"
        }
      ],
      "payable": false,
      "stateMutability": "view",
      "type": "function"
    },
    {
      "constant": true,
      "inputs": [],
      "name": "paused",
      "outputs": [
        {
          "name": "",
          "type": "bool"
        }
      ],
      "payable": false,
      "stateMutability": "view",
      "type": "function"
    },
    {
      "constant": false,
      "inputs": [
        {
          "name": "addr",
          "type": "address"
        }
      ],
      "name": "addAddressToWhitelist",
      "outputs": [
        {
          "name": "success",
          "type": "bool"
        }
      ],
      "payable": false,
      "stateMutability": "nonpayable",
      "type": "function"
    },
    {
      "constant": false,
      "inputs": [],
      "name": "pause",
      "outputs": [],
      "payable": false,
      "stateMutability": "nonpayable",
      "type": "function"
    },
    {
      "constant": true,
      "inputs": [],
      "name": "owner",
      "outputs": [
        {
          "name": "",
          "type": "address"
        }
      ],
      "payable": false,
      "stateMutability": "view",
      "type": "function"
    },
    {
      "constant": true,
      "inputs": [
        {
          "name": "",
          "type": "address"
        }
      ],
      "name": "whitelist",
      "outputs": [
        {
          "name": "",
          "type": "bool"
        }
      ],
      "payable": false,
      "stateMutability": "view",
      "type": "function"
    },
    {
      "constant": true,
      "inputs": [],
      "name": "tokenAddress",
      "outputs": [
        {
          "name": "",
          "type": "address"
        }
      ],
      "payable": false,
      "stateMutability": "view",
      "type": "function"
    },
    {
      "constant": true,
      "inputs": [],
      "name": "privatesaleAddress",
      "outputs": [
        {
          "name": "",
          "type": "address"
        }
      ],
      "payable": false,
      "stateMutability": "view",
      "type": "function"
    },
    {
      "constant": true,
      "inputs": [],
      "name": "startsAt",
      "outputs": [
        {
          "name": "",
          "type": "uint256"
        }
      ],
      "payable": false,
      "stateMutability": "view",
      "type": "function"
    },
    {
      "constant": true,
      "inputs": [],
      "name": "currentPhaseRate",
      "outputs": [
        {
          "name": "",
          "type": "uint256"
        }
      ],
      "payable": false,
      "stateMutability": "view",
      "type": "function"
    },
    {
      "constant": false,
      "inputs": [
        {
          "name": "addrs",
          "type": "address[]"
        }
      ],
      "name": "addAddressesToWhitelist",
      "outputs": [
        {
          "name": "success",
          "type": "bool"
        }
      ],
      "payable": false,
      "stateMutability": "nonpayable",
      "type": "function"
    },
    {
      "constant": false,
      "inputs": [
        {
          "name": "newOwner",
          "type": "address"
        }
      ],
      "name": "transferOwnership",
      "outputs": [],
      "payable": false,
      "stateMutability": "nonpayable",
      "type": "function"
    },
    {
      "constant": true,
      "inputs": [],
      "name": "token",
      "outputs": [
        {
          "name": "",
          "type": "address"
        }
      ],
      "payable": false,
      "stateMutability": "view",
      "type": "function"
    },
    {
      "inputs": [
        {
          "name": "_tokenAddress",
          "type": "address"
        }
      ],
      "payable": false,
      "stateMutability": "nonpayable",
      "type": "constructor"
    },
    {
      "payable": true,
      "stateMutability": "payable",
      "type": "fallback"
    },
    {
      "anonymous": false,
      "inputs": [
        {
          "indexed": false,
          "name": "beneficiary",
          "type": "address"
        },
        {
          "indexed": false,
          "name": "amountRaised",
          "type": "uint256"
        }
      ],
      "name": "AmountRaised",
      "type": "event"
    },
    {
      "anonymous": false,
      "inputs": [
        {
          "indexed": true,
          "name": "purchaser",
          "type": "address"
        },
        {
          "indexed": false,
          "name": "value",
          "type": "uint256"
        },
        {
          "indexed": false,
          "name": "wieAmount",
          "type": "uint256"
        }
      ],
      "name": "TokenPurchased",
      "type": "event"
    },
    {
      "anonymous": false,
      "inputs": [
        {
          "indexed": false,
          "name": "phase",
          "type": "uint8"
        },
        {
          "indexed": false,
          "name": "startsAt",
          "type": "uint256"
        },
        {
          "indexed": false,
          "name": "endsAt",
          "type": "uint256"
        }
      ],
      "name": "TokenPhaseStarted",
      "type": "event"
    },
    {
      "anonymous": false,
      "inputs": [
        {
          "indexed": false,
          "name": "phase",
          "type": "uint8"
        }
      ],
      "name": "TokenPhaseEnded",
      "type": "event"
    },
    {
      "anonymous": false,
      "inputs": [],
      "name": "Pause",
      "type": "event"
    },
    {
      "anonymous": false,
      "inputs": [],
      "name": "Unpause",
      "type": "event"
    },
    {
      "anonymous": false,
      "inputs": [
        {
          "indexed": false,
          "name": "addr",
          "type": "address"
        }
      ],
      "name": "WhitelistedAddressAdded",
      "type": "event"
    },
    {
      "anonymous": false,
      "inputs": [
        {
          "indexed": false,
          "name": "addr",
          "type": "address"
        }
      ],
      "name": "WhitelistedAddressRemoved",
      "type": "event"
    },
    {
      "anonymous": false,
      "inputs": [
        {
          "indexed": true,
          "name": "previousOwner",
          "type": "address"
        },
        {
          "indexed": true,
          "name": "newOwner",
          "type": "address"
        }
      ],
      "name": "OwnershipTransferred",
      "type": "event"
    },
    {
      "constant": false,
      "inputs": [
        {
          "name": "_phase",
          "type": "uint256"
        },
        {
          "name": "_currentPhaseRate",
          "type": "uint256"
        },
        {
          "name": "_startsAt",
          "type": "uint256"
        },
        {
          "name": "_endsAt",
          "type": "uint256"
        }
      ],
      "name": "startPhase",
      "outputs": [],
      "payable": false,
      "stateMutability": "nonpayable",
      "type": "function"
    },
    {
      "constant": false,
      "inputs": [
        {
          "name": "_to",
          "type": "address"
        }
      ],
      "name": "buyTokens",
      "outputs": [],
      "payable": true,
      "stateMutability": "payable",
      "type": "function"
    },
    {
      "constant": false,
      "inputs": [],
      "name": "finalizePhase",
      "outputs": [],
      "payable": false,
      "stateMutability": "nonpayable",
      "type": "function"
    },
    {
      "constant": false,
      "inputs": [
        {
          "name": "_burnAmount",
          "type": "uint256"
        },
        {
          "name": "_ecoAmount",
          "type": "uint256"
        },
        {
          "name": "_airdropAmount",
          "type": "uint256"
        }
      ],
      "name": "finalizeIto",
      "outputs": [],
      "payable": false,
      "stateMutability": "nonpayable",
      "type": "function"
    }
  ],
  "bytecode": "0x60606040526000600260006101000a81548160ff021916908315150217905550601260035534156200003057600080fd5b60405160208062001f7e83398101604052808051906020019091905050336000806101000a81548173ffffffffffffffffffffffffffffffffffffffff021916908373ffffffffffffffffffffffffffffffffffffffff16021790555073ea2d2c0223af6e9c83db343aef2194564b27ee87600560006101000a81548173ffffffffffffffffffffffffffffffffffffffff021916908373ffffffffffffffffffffffffffffffffffffffff160217905550736876b854bc0e2c59dc448949d1caa5bf5bb08f54600660006101000a81548173ffffffffffffffffffffffffffffffffffffffff021916908373ffffffffffffffffffffffffffffffffffffffff16021790555073cab76a29d35cc2f6b481112157675486180a560b600760006101000a81548173ffffffffffffffffffffffffffffffffffffffff021916908373ffffffffffffffffffffffffffffffffffffffff16021790555073b6d40fb512e7c824c6a33861b233ee50c263a950600860006101000a81548173ffffffffffffffffffffffffffffffffffffffff021916908373ffffffffffffffffffffffffffffffffffffffff16021790555080600460006101000a81548173ffffffffffffffffffffffffffffffffffffffff021916908373ffffffffffffffffffffffffffffffffffffffff160217905550600460009054906101000a900473ffffffffffffffffffffffffffffffffffffffff16601160006101000a81548173ffffffffffffffffffffffffffffffffffffffff021916908373ffffffffffffffffffffffffffffffffffffffff1602179055506000600e60006101000a81548160ff02191690836002811115620002a557fe5b0217905550600660009054906101000a900473ffffffffffffffffffffffffffffffffffffffff16601060006101000a81548173ffffffffffffffffffffffffffffffffffffffff021916908373ffffffffffffffffffffffffffffffffffffffff1602179055506000600a819055506000600b819055506000600c8190555062000349612710600354620003566401000000000262001b5d176401000000009004565b600d8190555050620003c5565b60006200037e82600a0a846200038664010000000002620019f4179091906401000000009004565b905092915050565b60008060008414156200039d5760009150620003be565b8284029050828482811515620003af57fe5b04141515620003ba57fe5b8091505b5092915050565b611ba980620003d56000396000f300606060405260043610610154576000357c0100000000000000000000000000000000000000000000000000000000900463ffffffff1680630a09284a1461015f578063122fe6851461018857806324953eaa146101dd578063286dd3f51461024f5780632eb0111c146102a0578063301a9b09146102f5578063313ce5671461033357806331d2f8911461035c5780633f4ba83a146103b15780634042b66f146103c6578063521eb273146103ef5780635536deb6146104445780635c975abb146104595780637b9417c8146104865780638456cb59146104d75780638da5cb5b146104ec5780639b19251a146105415780639d76ea5814610592578063a757ac4b146105e7578063af4686821461063c578063cc326e1c14610665578063d8c3c1ed1461068e578063e2ec6ec3146106c3578063ec8ac4d814610735578063f2fde38b14610763578063fc0c546a1461079c575b61015d336107f1565b005b341561016a57600080fd5b610172610b3b565b6040518082815260200191505060405180910390f35b341561019357600080fd5b61019b610b41565b604051808273ffffffffffffffffffffffffffffffffffffffff1673ffffffffffffffffffffffffffffffffffffffff16815260200191505060405180910390f35b34156101e857600080fd5b610235600480803590602001908201803590602001908080602002602001604051908101604052809392919081815260200183836020028082843782019150505050505091905050610b67565b604051808215151515815260200191505060405180910390f35b341561025a57600080fd5b610286600480803573ffffffffffffffffffffffffffffffffffffffff16906020019091905050610c10565b604051808215151515815260200191505060405180910390f35b34156102ab57600080fd5b6102b3610d84565b604051808273ffffffffffffffffffffffffffffffffffffffff1673ffffffffffffffffffffffffffffffffffffffff16815260200191505060405180910390f35b341561030057600080fd5b6103316004808035906020019091908035906020019091908035906020019091908035906020019091905050610daa565b005b341561033e57600080fd5b610346610fec565b6040518082815260200191505060405180910390f35b341561036757600080fd5b61036f610ff2565b604051808273ffffffffffffffffffffffffffffffffffffffff1673ffffffffffffffffffffffffffffffffffffffff16815260200191505060405180910390f35b34156103bc57600080fd5b6103c4611018565b005b34156103d157600080fd5b6103d96110d7565b6040518082815260200191505060405180910390f35b34156103fa57600080fd5b6104026110dd565b604051808273ffffffffffffffffffffffffffffffffffffffff1673ffffffffffffffffffffffffffffffffffffffff16815260200191505060405180910390f35b341561044f57600080fd5b610457611103565b005b341561046457600080fd5b61046c611358565b604051808215151515815260200191505060405180910390f35b341561049157600080fd5b6104bd600480803573ffffffffffffffffffffffffffffffffffffffff1690602001909190505061136b565b604051808215151515815260200191505060405180910390f35b34156104e257600080fd5b6104ea6114df565b005b34156104f757600080fd5b6104ff61159f565b604051808273ffffffffffffffffffffffffffffffffffffffff1673ffffffffffffffffffffffffffffffffffffffff16815260200191505060405180910390f35b341561054c57600080fd5b610578600480803573ffffffffffffffffffffffffffffffffffffffff169060200190919050506115c4565b604051808215151515815260200191505060405180910390f35b341561059d57600080fd5b6105a56115e4565b604051808273ffffffffffffffffffffffffffffffffffffffff1673ffffffffffffffffffffffffffffffffffffffff16815260200191505060405180910390f35b34156105f257600080fd5b6105fa61160a565b604051808273ffffffffffffffffffffffffffffffffffffffff1673ffffffffffffffffffffffffffffffffffffffff16815260200191505060405180910390f35b341561064757600080fd5b61064f611630565b6040518082815260200191505060405180910390f35b341561067057600080fd5b610678611636565b6040518082815260200191505060405180910390f35b341561069957600080fd5b6106c1600480803590602001909190803590602001909190803590602001909190505061163c565b005b34156106ce57600080fd5b61071b6004808035906020019082018035906020019080806020026020016040519081016040528093929190818152602001838360200280828437820191505050505050919050506117d0565b604051808215151515815260200191505060405180910390f35b610761600480803573ffffffffffffffffffffffffffffffffffffffff169060200190919050506107f1565b005b341561076e57600080fd5b61079a600480803573ffffffffffffffffffffffffffffffffffffffff16906020019091905050611879565b005b34156107a757600080fd5b6107af6119ce565b604051808273ffffffffffffffffffffffffffffffffffffffff1673ffffffffffffffffffffffffffffffffffffffff16815260200191505060405180910390f35b600080600a5442101580156108085750600b544211155b151561081057fe5b600260009054906101000a900460ff1615151561082c57600080fd5b600160008473ffffffffffffffffffffffffffffffffffffffff1673ffffffffffffffffffffffffffffffffffffffff16815260200190815260200160002060009054906101000a900460ff16151561088457600080fd5b600c5434101580156108985750600d543411155b15156108a357600080fd5b60008373ffffffffffffffffffffffffffffffffffffffff16141515156108c957600080fd5b3491506108e1600f54836119f490919063ffffffff16565b9050600060028111156108f057fe5b600e60009054906101000a900460ff16600281111561090b57fe5b1415610927576109248182611a2f90919063ffffffff16565b90505b61093c82600954611a2f90919063ffffffff16565b600981905550600560009054906101000a900473ffffffffffffffffffffffffffffffffffffffff1673ffffffffffffffffffffffffffffffffffffffff166108fc839081150290604051600060405180830381858888f1935050505015156109a457600080fd5b601160009054906101000a900473ffffffffffffffffffffffffffffffffffffffff1673ffffffffffffffffffffffffffffffffffffffff16636323b52684601060009054906101000a900473ffffffffffffffffffffffffffffffffffffffff16846040518463ffffffff167c0100000000000000000000000000000000000000000000000000000000028152600401808473ffffffffffffffffffffffffffffffffffffffff1673ffffffffffffffffffffffffffffffffffffffff1681526020018373ffffffffffffffffffffffffffffffffffffffff1673ffffffffffffffffffffffffffffffffffffffff1681526020018281526020019350505050602060405180830381600087803b1515610abe57600080fd5b5af11515610acb57600080fd5b505050604051805190501515610ae057600080fd5b8273ffffffffffffffffffffffffffffffffffffffff167f3ceffd410054fdaed44f598ff5c1fb450658778e2241892da4aa646979dee6178284604051808381526020018281526020019250505060405180910390a2505050565b600b5481565b600760009054906101000a900473ffffffffffffffffffffffffffffffffffffffff1681565b6000806000809054906101000a900473ffffffffffffffffffffffffffffffffffffffff1673ffffffffffffffffffffffffffffffffffffffff163373ffffffffffffffffffffffffffffffffffffffff16141515610bc557600080fd5b600090505b8251811015610c0a57610bf38382815181101515610be457fe5b90602001906020020151610c10565b15610bfd57600191505b8080600101915050610bca565b50919050565b60008060009054906101000a900473ffffffffffffffffffffffffffffffffffffffff1673ffffffffffffffffffffffffffffffffffffffff163373ffffffffffffffffffffffffffffffffffffffff16141515610c6d57600080fd5b600160008373ffffffffffffffffffffffffffffffffffffffff1673ffffffffffffffffffffffffffffffffffffffff16815260200190815260200160002060009054906101000a900460ff1615610d7f576000600160008473ffffffffffffffffffffffffffffffffffffffff1673ffffffffffffffffffffffffffffffffffffffff16815260200190815260200160002060006101000a81548160ff0219169083151502179055507ff1abf01a1043b7c244d128e8595cf0c1d10743b022b03a02dffd8ca3bf729f5a82604051808273ffffffffffffffffffffffffffffffffffffffff1673ffffffffffffffffffffffffffffffffffffffff16815260200191505060405180910390a1600190505b919050565b601060009054906101000a900473ffffffffffffffffffffffffffffffffffffffff1681565b6000809054906101000a900473ffffffffffffffffffffffffffffffffffffffff1673ffffffffffffffffffffffffffffffffffffffff163373ffffffffffffffffffffffffffffffffffffffff16141515610e0557600080fd5b60008410158015610e17575060028411155b1515610e2257600080fd5b600b5482118015610e3257508181115b1515610e3d57600080fd5b600083111515610e4c57600080fd5b836002811115610e5857fe5b600e60006101000a81548160ff02191690836002811115610e7557fe5b0217905550610e82611a4d565b601060006101000a81548173ffffffffffffffffffffffffffffffffffffffff021916908373ffffffffffffffffffffffffffffffffffffffff1602179055506000601060009054906101000a900473ffffffffffffffffffffffffffffffffffffffff1673ffffffffffffffffffffffffffffffffffffffff1614151515610f0757fe5b82600f8190555060006002811115610f1b57fe5b600e60009054906101000a900460ff166002811115610f3657fe5b1415610f5457610f49600a600354611b5d565b600c81905550610f70565b6000600c81905550610f69600f600354611b5d565b600d819055505b81600a8190555080600b819055507f4dd4cf04e895ce390b33814a06c8087ae7225521c993fb47043f4507d3c7f2c0600e60009054906101000a900460ff16600a54600b5460405180846002811115610fc557fe5b60ff168152602001838152602001828152602001935050505060405180910390a150505050565b60035481565b600860009054906101000a900473ffffffffffffffffffffffffffffffffffffffff1681565b6000809054906101000a900473ffffffffffffffffffffffffffffffffffffffff1673ffffffffffffffffffffffffffffffffffffffff163373ffffffffffffffffffffffffffffffffffffffff1614151561107357600080fd5b600260009054906101000a900460ff16151561108e57600080fd5b6000600260006101000a81548160ff0219169083151502179055507f7805862f689e2f13df9f062ff482ad3ad112aca9e0847911ed832e158c525b3360405160405180910390a1565b60095481565b600560009054906101000a900473ffffffffffffffffffffffffffffffffffffffff1681565b6000809054906101000a900473ffffffffffffffffffffffffffffffffffffffff1673ffffffffffffffffffffffffffffffffffffffff163373ffffffffffffffffffffffffffffffffffffffff1614151561115e57600080fd5b6000600281111561116b57fe5b600e60009054906101000a900460ff16600281111561118657fe5b141561122e57601160009054906101000a900473ffffffffffffffffffffffffffffffffffffffff1673ffffffffffffffffffffffffffffffffffffffff1663d02e140a6040518163ffffffff167c0100000000000000000000000000000000000000000000000000000000028152600401602060405180830381600087803b151561121157600080fd5b5af1151561121e57600080fd5b50505060405180519050506112fb565b6001600281111561123b57fe5b600e60009054906101000a900460ff16600281111561125657fe5b14156112fa57601160009054906101000a900473ffffffffffffffffffffffffffffffffffffffff1673ffffffffffffffffffffffffffffffffffffffff1663a0a6e9406040518163ffffffff167c0100000000000000000000000000000000000000000000000000000000028152600401602060405180830381600087803b15156112e157600080fd5b5af115156112ee57600080fd5b50505060405180519050505b5b42600b819055507f71c5ed43fa42552b032a720943e16971c0ef01f33c18d0c8c6d982a5e8b4668c600e60009054906101000a900460ff166040518082600281111561134357fe5b60ff16815260200191505060405180910390a1565b600260009054906101000a900460ff1681565b60008060009054906101000a900473ffffffffffffffffffffffffffffffffffffffff1673ffffffffffffffffffffffffffffffffffffffff163373ffffffffffffffffffffffffffffffffffffffff161415156113c857600080fd5b600160008373ffffffffffffffffffffffffffffffffffffffff1673ffffffffffffffffffffffffffffffffffffffff16815260200190815260200160002060009054906101000a900460ff1615156114da5760018060008473ffffffffffffffffffffffffffffffffffffffff1673ffffffffffffffffffffffffffffffffffffffff16815260200190815260200160002060006101000a81548160ff0219169083151502179055507fd1bba68c128cc3f427e5831b3c6f99f480b6efa6b9e80c757768f6124158cc3f82604051808273ffffffffffffffffffffffffffffffffffffffff1673ffffffffffffffffffffffffffffffffffffffff16815260200191505060405180910390a1600190505b919050565b6000809054906101000a900473ffffffffffffffffffffffffffffffffffffffff1673ffffffffffffffffffffffffffffffffffffffff163373ffffffffffffffffffffffffffffffffffffffff1614151561153a57600080fd5b600260009054906101000a900460ff1615151561155657600080fd5b6001600260006101000a81548160ff0219169083151502179055507f6985a02210a168e66602d3235cb6db0e70f92b3ba4d376a33c0f3d9434bff62560405160405180910390a1565b6000809054906101000a900473ffffffffffffffffffffffffffffffffffffffff1681565b60016020528060005260406000206000915054906101000a900460ff1681565b600460009054906101000a900473ffffffffffffffffffffffffffffffffffffffff1681565b600660009054906101000a900473ffffffffffffffffffffffffffffffffffffffff1681565b600a5481565b600f5481565b6000809054906101000a900473ffffffffffffffffffffffffffffffffffffffff1673ffffffffffffffffffffffffffffffffffffffff163373ffffffffffffffffffffffffffffffffffffffff1614151561169757600080fd5b601160009054906101000a900473ffffffffffffffffffffffffffffffffffffffff1673ffffffffffffffffffffffffffffffffffffffff1663258b5c066116e185600354611b5d565b6116ed85600354611b5d565b6116f985600354611b5d565b6040518463ffffffff167c0100000000000000000000000000000000000000000000000000000000028152600401808481526020018381526020018281526020019350505050602060405180830381600087803b151561175857600080fd5b5af1151561176557600080fd5b505050604051805190505042600b819055507f71c5ed43fa42552b032a720943e16971c0ef01f33c18d0c8c6d982a5e8b4668c600e60009054906101000a900460ff16604051808260028111156117b857fe5b60ff16815260200191505060405180910390a1505050565b6000806000809054906101000a900473ffffffffffffffffffffffffffffffffffffffff1673ffffffffffffffffffffffffffffffffffffffff163373ffffffffffffffffffffffffffffffffffffffff1614151561182e57600080fd5b600090505b82518110156118735761185c838281518110151561184d57fe5b9060200190602002015161136b565b1561186657600191505b8080600101915050611833565b50919050565b6000809054906101000a900473ffffffffffffffffffffffffffffffffffffffff1673ffffffffffffffffffffffffffffffffffffffff163373ffffffffffffffffffffffffffffffffffffffff161415156118d457600080fd5b600073ffffffffffffffffffffffffffffffffffffffff168173ffffffffffffffffffffffffffffffffffffffff161415151561191057600080fd5b8073ffffffffffffffffffffffffffffffffffffffff166000809054906101000a900473ffffffffffffffffffffffffffffffffffffffff1673ffffffffffffffffffffffffffffffffffffffff167f8be0079c531659141344cd1fd0a4f28419497f9722a3daafe3b4186f6b6457e060405160405180910390a3806000806101000a81548173ffffffffffffffffffffffffffffffffffffffff021916908373ffffffffffffffffffffffffffffffffffffffff16021790555050565b601160009054906101000a900473ffffffffffffffffffffffffffffffffffffffff1681565b6000806000841415611a095760009150611a28565b8284029050828482811515611a1a57fe5b04141515611a2457fe5b8091505b5092915050565b6000808284019050838110151515611a4357fe5b8091505092915050565b6000806002811115611a5b57fe5b600e60009054906101000a900460ff166002811115611a7657fe5b1415611aa657600660009054906101000a900473ffffffffffffffffffffffffffffffffffffffff169050611b5a565b60016002811115611ab357fe5b600e60009054906101000a900460ff166002811115611ace57fe5b1415611afe57600760009054906101000a900473ffffffffffffffffffffffffffffffffffffffff169050611b5a565b600280811115611b0a57fe5b600e60009054906101000a900460ff166002811115611b2557fe5b1415611b5557600860009054906101000a900473ffffffffffffffffffffffffffffffffffffffff169050611b5a565b600090505b90565b6000611b7582600a0a846119f490919063ffffffff16565b9050929150505600a165627a7a723058206c273b2e1adca809852b81cb7ef868c8751b9afd240fe5b7050f635a5f3cedd10029",
  "source": "pragma solidity ^0.4.18;\r\n\r\nimport 'zeppelin-solidity/contracts/math/SafeMath.sol';\r\nimport \"zeppelin-solidity/contracts/ownership/Whitelist.sol\";\r\nimport \"zeppelin-solidity/contracts/lifecycle/Pausable.sol\";\r\nimport \"./TTTToken.sol\";\r\n\r\ncontract TTTTokenSell is Whitelist, Pausable {\r\n\tusing SafeMath for uint;\r\n\r\n\tuint public decimals = 18;\r\n\r\n\t// TTTToken contract address\r\n\taddress public tokenAddress;\r\n\taddress public wallet;\r\n\t// Wallets for each phase - hardcap of each is balanceOf\r\n\taddress public privatesaleAddress;\r\n\taddress public presaleAddress;\r\n\taddress public crowdsaleAddress;\r\n\r\n\t// Amount of wei currently raised\r\n\tuint256 public weiRaised;\r\n\r\n\t// Variables for phase start/end\r\n\tuint256 public startsAt;\r\n\tuint256 public endsAt;\r\n\r\n\t// minimum and maximum\r\n\tuint256 ethMin;\r\n\tuint256 ethMax;\r\n\r\n\tenum CurrentPhase { Privatesale, Presale, Crowdsale }\r\n\r\n\tCurrentPhase currentPhase;\r\n\tuint public currentPhaseRate;\r\n\taddress public currentPhaseAddress;\r\n\r\n\tTTTToken public token;\r\n\r\n\tevent AmountRaised(address beneficiary, uint amountRaised);\r\n\tevent TokenPurchased(address indexed purchaser, uint256 value, uint256 wieAmount);\r\n\tevent TokenPhaseStarted(CurrentPhase phase, uint256 startsAt, uint256 endsAt);\r\n\tevent TokenPhaseEnded(CurrentPhase phase);\r\n\r\n\tmodifier tokenPhaseIsActive() {\r\n\t\tassert(now >= startsAt && now <= endsAt);\r\n\t\t_;\r\n\t}\r\n\r\n\tfunction TTTTokenSell(address _tokenAddress) {\r\n\t\twallet = 0xea2d2c0223af6e9c83db343aef2194564b27ee87;\r\n\r\n\t\tprivatesaleAddress = 0x6876b854Bc0E2c59dc448949d1Caa5BF5bb08F54;\r\n\t\tpresaleAddress = 0xcab76A29D35cc2f6B481112157675486180A560B;\r\n\t\tcrowdsaleAddress = 0xb6d40Fb512e7c824c6a33861b233eE50c263A950;\r\n\r\n\t\ttokenAddress = _tokenAddress;\r\n\t\ttoken = TTTToken(tokenAddress);\r\n\t\tcurrentPhase = CurrentPhase.Privatesale;\r\n\t\tcurrentPhaseAddress = privatesaleAddress;\r\n\t\tstartsAt = 0;\r\n\t\tendsAt = 0;\r\n\t\tethMin = 0;\r\n\t\tethMax = numToWei(10000, decimals);\r\n\t}\r\n\r\n\tfunction startPhase(uint _phase, uint _currentPhaseRate, uint256 _startsAt, uint256 _endsAt) external onlyOwner {\r\n\t\trequire(_phase >= 0 && _phase <= 2);\r\n\t\trequire(_startsAt > endsAt && _endsAt > _startsAt);\r\n\t\trequire(_currentPhaseRate > 0);\r\n\t\tcurrentPhase = CurrentPhase(_phase);\r\n\t\tcurrentPhaseAddress = getPhaseAddress();\r\n\t\tassert(currentPhaseAddress != 0x0);\r\n\t\tcurrentPhaseRate = _currentPhaseRate;\r\n\t\tif(currentPhase == CurrentPhase.Privatesale) ethMin = numToWei(10, decimals);\r\n\t\telse {\r\n\t\t\tethMin = 0;\r\n\t\t\tethMax = numToWei(15, decimals);\r\n\t\t}\r\n\t\tstartsAt = _startsAt;\r\n\t\tendsAt = _endsAt;\r\n\t\tTokenPhaseStarted(currentPhase, startsAt, endsAt);\r\n\t}\r\n\r\n\tfunction buyTokens(address _to) tokenPhaseIsActive whenNotPaused payable {\r\n\t\trequire(whitelist[_to]);\r\n\t\trequire(msg.value >= ethMin && msg.value <= ethMax);\r\n\t\trequire(_to != 0x0);\r\n\t\tuint256 weiAmount = msg.value;\r\n\t\tuint256 tokens = weiAmount.mul(currentPhaseRate);\r\n\t\t// 100% bonus for privatesale\r\n\t\tif(currentPhase == CurrentPhase.Privatesale) tokens = tokens.add(tokens);\r\n\t\tweiRaised = weiRaised.add(weiAmount);\r\n\t\twallet.transfer(weiAmount);\r\n\t\tif(!token.transferFromTokenSell(_to, currentPhaseAddress, tokens)) revert();\r\n\t\tTokenPurchased(_to, tokens, weiAmount);\r\n\t}\r\n\r\n\t// To contribute, send a value transaction to the token sell Address.\r\n\t// Please include at least 100 000 gas.\r\n\tfunction () payable {\r\n\t\tbuyTokens(msg.sender);\r\n\t}\r\n\r\n\tfunction finalizePhase() external onlyOwner {\r\n\t\tif(currentPhase == CurrentPhase.Privatesale) token.finalizePrivatesale();\r\n\t\telse if(currentPhase == CurrentPhase.Presale) token.finalizePresale();\r\n\t\tendsAt = block.timestamp;\r\n\t\tTokenPhaseEnded(currentPhase);\r\n\t}\r\n\r\n\tfunction finalizeIto(uint256 _burnAmount, uint256 _ecoAmount, uint256 _airdropAmount) external onlyOwner {\r\n\t\ttoken.finalizeCrowdsale(numToWei(_burnAmount, decimals), numToWei(_ecoAmount, decimals), numToWei(_airdropAmount, decimals));\r\n\t\tendsAt = block.timestamp;\r\n\t\tTokenPhaseEnded(currentPhase);\r\n\t}\r\n\r\n\tfunction getPhaseAddress() internal view returns (address phase) {\r\n\t\tif(currentPhase == CurrentPhase.Privatesale) return privatesaleAddress;\r\n\t\telse if(currentPhase == CurrentPhase.Presale) return presaleAddress;\r\n\t\telse if(currentPhase == CurrentPhase.Crowdsale) return crowdsaleAddress;\r\n\t\treturn 0x0;\r\n\t}\r\n\r\n\tfunction numToWei(uint256 _num, uint _decimals) internal pure returns (uint256 w) {\r\n\t\treturn _num.mul(10**_decimals);\r\n\t}\r\n}\r\n",
  "sourcePath": "C:\\TTTToken\\contracts\\TTTTokenSell.sol",
  "compiler": {
    "name": "solc",
    "version": "0.4.21+commit.dfe3193c.Emscripten.clang"
  },
  "schemaVersion": "2.0.0",
  "updatedAt": "2018-04-11T20:39:36.574Z"
}