{
  "contractName": "TTTToken",
  "abi": [
    {
      "constant": true,
      "inputs": [],
      "name": "name",
      "outputs": [
        {
          "name": "",
          "type": "string"
        }
      ],
      "payable": false,
      "stateMutability": "view",
      "type": "function"
    },
    {
      "constant": true,
      "inputs": [],
      "name": "presaleAddress",
      "outputs": [
        {
          "name": "",
          "type": "address"
        }
      ],
      "payable": false,
      "stateMutability": "view",
      "type": "function"
    },
    {
      "constant": true,
      "inputs": [],
      "name": "privatesaleSupply",
      "outputs": [
        {
          "name": "",
          "type": "uint256"
        }
      ],
      "payable": false,
      "stateMutability": "view",
      "type": "function"
    },
    {
      "constant": true,
      "inputs": [],
      "name": "tokenSaleAddress",
      "outputs": [
        {
          "name": "",
          "type": "address"
        }
      ],
      "payable": false,
      "stateMutability": "view",
      "type": "function"
    },
    {
      "constant": true,
      "inputs": [],
      "name": "teamSupply",
      "outputs": [
        {
          "name": "",
          "type": "uint256"
        }
      ],
      "payable": false,
      "stateMutability": "view",
      "type": "function"
    },
    {
      "constant": true,
      "inputs": [],
      "name": "decimals",
      "outputs": [
        {
          "name": "",
          "type": "uint8"
        }
      ],
      "payable": false,
      "stateMutability": "view",
      "type": "function"
    },
    {
      "constant": true,
      "inputs": [],
      "name": "crowdsaleAddress",
      "outputs": [
        {
          "name": "",
          "type": "address"
        }
      ],
      "payable": false,
      "stateMutability": "view",
      "type": "function"
    },
    {
      "constant": true,
      "inputs": [],
      "name": "totalSupply_",
      "outputs": [
        {
          "name": "",
          "type": "uint256"
        }
      ],
      "payable": false,
      "stateMutability": "view",
      "type": "function"
    },
    {
      "constant": true,
      "inputs": [],
      "name": "secondVestAmount",
      "outputs": [
        {
          "name": "",
          "type": "uint256"
        }
      ],
      "payable": false,
      "stateMutability": "view",
      "type": "function"
    },
    {
      "constant": true,
      "inputs": [],
      "name": "teamSupplyAddress",
      "outputs": [
        {
          "name": "",
          "type": "address"
        }
      ],
      "payable": false,
      "stateMutability": "view",
      "type": "function"
    },
    {
      "constant": true,
      "inputs": [],
      "name": "crowdsaleFinalized",
      "outputs": [
        {
          "name": "",
          "type": "bool"
        }
      ],
      "payable": false,
      "stateMutability": "view",
      "type": "function"
    },
    {
      "constant": true,
      "inputs": [],
      "name": "privatesaleFinalized",
      "outputs": [
        {
          "name": "",
          "type": "bool"
        }
      ],
      "payable": false,
      "stateMutability": "view",
      "type": "function"
    },
    {
      "constant": true,
      "inputs": [],
      "name": "presaleFinalized",
      "outputs": [
        {
          "name": "",
          "type": "bool"
        }
      ],
      "payable": false,
      "stateMutability": "view",
      "type": "function"
    },
    {
      "constant": true,
      "inputs": [],
      "name": "ecoSupplyAddress",
      "outputs": [
        {
          "name": "",
          "type": "address"
        }
      ],
      "payable": false,
      "stateMutability": "view",
      "type": "function"
    },
    {
      "constant": true,
      "inputs": [],
      "name": "owner",
      "outputs": [
        {
          "name": "",
          "type": "address"
        }
      ],
      "payable": false,
      "stateMutability": "view",
      "type": "function"
    },
    {
      "constant": true,
      "inputs": [],
      "name": "symbol",
      "outputs": [
        {
          "name": "",
          "type": "string"
        }
      ],
      "payable": false,
      "stateMutability": "view",
      "type": "function"
    },
    {
      "constant": true,
      "inputs": [],
      "name": "crowdsaleBurnAmount",
      "outputs": [
        {
          "name": "",
          "type": "uint256"
        }
      ],
      "payable": false,
      "stateMutability": "view",
      "type": "function"
    },
    {
      "constant": true,
      "inputs": [],
      "name": "privatesaleAddress",
      "outputs": [
        {
          "name": "",
          "type": "address"
        }
      ],
      "payable": false,
      "stateMutability": "view",
      "type": "function"
    },
    {
      "constant": true,
      "inputs": [],
      "name": "crowdsaleBurnAddress",
      "outputs": [
        {
          "name": "",
          "type": "address"
        }
      ],
      "payable": false,
      "stateMutability": "view",
      "type": "function"
    },
    {
      "constant": true,
      "inputs": [],
      "name": "presaleSupply",
      "outputs": [
        {
          "name": "",
          "type": "uint256"
        }
      ],
      "payable": false,
      "stateMutability": "view",
      "type": "function"
    },
    {
      "constant": true,
      "inputs": [],
      "name": "crowdsaleAirdropAddress",
      "outputs": [
        {
          "name": "",
          "type": "address"
        }
      ],
      "payable": false,
      "stateMutability": "view",
      "type": "function"
    },
    {
      "constant": true,
      "inputs": [],
      "name": "ecoSupply",
      "outputs": [
        {
          "name": "",
          "type": "uint256"
        }
      ],
      "payable": false,
      "stateMutability": "view",
      "type": "function"
    },
    {
      "constant": true,
      "inputs": [],
      "name": "firstVestStartsAt",
      "outputs": [
        {
          "name": "",
          "type": "uint256"
        }
      ],
      "payable": false,
      "stateMutability": "view",
      "type": "function"
    },
    {
      "constant": true,
      "inputs": [],
      "name": "crowdsaleSupply",
      "outputs": [
        {
          "name": "",
          "type": "uint256"
        }
      ],
      "payable": false,
      "stateMutability": "view",
      "type": "function"
    },
    {
      "constant": true,
      "inputs": [],
      "name": "firstVestAmount",
      "outputs": [
        {
          "name": "",
          "type": "uint256"
        }
      ],
      "payable": false,
      "stateMutability": "view",
      "type": "function"
    },
    {
      "constant": true,
      "inputs": [],
      "name": "secondVestStartsAt",
      "outputs": [
        {
          "name": "",
          "type": "uint256"
        }
      ],
      "payable": false,
      "stateMutability": "view",
      "type": "function"
    },
    {
      "constant": false,
      "inputs": [
        {
          "name": "newOwner",
          "type": "address"
        }
      ],
      "name": "transferOwnership",
      "outputs": [],
      "payable": false,
      "stateMutability": "nonpayable",
      "type": "function"
    },
    {
      "constant": true,
      "inputs": [],
      "name": "airdropSupply",
      "outputs": [
        {
          "name": "",
          "type": "uint256"
        }
      ],
      "payable": false,
      "stateMutability": "view",
      "type": "function"
    },
    {
      "inputs": [],
      "payable": false,
      "stateMutability": "nonpayable",
      "type": "constructor"
    },
    {
      "anonymous": false,
      "inputs": [
        {
          "indexed": false,
          "name": "tokensRemaining",
          "type": "uint256"
        }
      ],
      "name": "PrivatesaleFinalized",
      "type": "event"
    },
    {
      "anonymous": false,
      "inputs": [
        {
          "indexed": false,
          "name": "tokensRemaining",
          "type": "uint256"
        }
      ],
      "name": "PresaleFinalized",
      "type": "event"
    },
    {
      "anonymous": false,
      "inputs": [
        {
          "indexed": false,
          "name": "tokensRemaining",
          "type": "uint256"
        }
      ],
      "name": "CrowdsaleFinalized",
      "type": "event"
    },
    {
      "anonymous": false,
      "inputs": [
        {
          "indexed": true,
          "name": "burner",
          "type": "address"
        },
        {
          "indexed": false,
          "name": "value",
          "type": "uint256"
        }
      ],
      "name": "Burn",
      "type": "event"
    },
    {
      "anonymous": false,
      "inputs": [
        {
          "indexed": false,
          "name": "tSeller",
          "type": "address"
        },
        {
          "indexed": false,
          "name": "from",
          "type": "address"
        }
      ],
      "name": "TokensaleAddressSet",
      "type": "event"
    },
    {
      "anonymous": false,
      "inputs": [
        {
          "indexed": true,
          "name": "previousOwner",
          "type": "address"
        },
        {
          "indexed": true,
          "name": "newOwner",
          "type": "address"
        }
      ],
      "name": "OwnershipTransferred",
      "type": "event"
    },
    {
      "anonymous": false,
      "inputs": [
        {
          "indexed": true,
          "name": "owner",
          "type": "address"
        },
        {
          "indexed": true,
          "name": "spender",
          "type": "address"
        },
        {
          "indexed": false,
          "name": "value",
          "type": "uint256"
        }
      ],
      "name": "Approval",
      "type": "event"
    },
    {
      "anonymous": false,
      "inputs": [
        {
          "indexed": true,
          "name": "from",
          "type": "address"
        },
        {
          "indexed": true,
          "name": "to",
          "type": "address"
        },
        {
          "indexed": false,
          "name": "value",
          "type": "uint256"
        }
      ],
      "name": "Transfer",
      "type": "event"
    },
    {
      "constant": false,
      "inputs": [
        {
          "name": "_to",
          "type": "address"
        },
        {
          "name": "_amount",
          "type": "uint256"
        }
      ],
      "name": "transfer",
      "outputs": [
        {
          "name": "success",
          "type": "bool"
        }
      ],
      "payable": false,
      "stateMutability": "nonpayable",
      "type": "function"
    },
    {
      "constant": false,
      "inputs": [
        {
          "name": "_from",
          "type": "address"
        },
        {
          "name": "_to",
          "type": "address"
        },
        {
          "name": "_amount",
          "type": "uint256"
        }
      ],
      "name": "transferFrom",
      "outputs": [
        {
          "name": "success",
          "type": "bool"
        }
      ],
      "payable": false,
      "stateMutability": "nonpayable",
      "type": "function"
    },
    {
      "constant": false,
      "inputs": [
        {
          "name": "_to",
          "type": "address"
        },
        {
          "name": "_from",
          "type": "address"
        },
        {
          "name": "_amount",
          "type": "uint256"
        }
      ],
      "name": "transferFromTokenSell",
      "outputs": [
        {
          "name": "success",
          "type": "bool"
        }
      ],
      "payable": false,
      "stateMutability": "nonpayable",
      "type": "function"
    },
    {
      "constant": false,
      "inputs": [
        {
          "name": "_spender",
          "type": "address"
        },
        {
          "name": "_value",
          "type": "uint256"
        }
      ],
      "name": "approve",
      "outputs": [
        {
          "name": "success",
          "type": "bool"
        }
      ],
      "payable": false,
      "stateMutability": "nonpayable",
      "type": "function"
    },
    {
      "constant": true,
      "inputs": [
        {
          "name": "_owner",
          "type": "address"
        },
        {
          "name": "_spender",
          "type": "address"
        }
      ],
      "name": "allowance",
      "outputs": [
        {
          "name": "remaining",
          "type": "uint256"
        }
      ],
      "payable": false,
      "stateMutability": "view",
      "type": "function"
    },
    {
      "constant": true,
      "inputs": [
        {
          "name": "_owner",
          "type": "address"
        }
      ],
      "name": "balanceOf",
      "outputs": [
        {
          "name": "balance",
          "type": "uint256"
        }
      ],
      "payable": false,
      "stateMutability": "view",
      "type": "function"
    },
    {
      "constant": true,
      "inputs": [],
      "name": "totalSupply",
      "outputs": [
        {
          "name": "totalSupply",
          "type": "uint256"
        }
      ],
      "payable": false,
      "stateMutability": "view",
      "type": "function"
    },
    {
      "constant": false,
      "inputs": [
        {
          "name": "_tokenSaleAddress",
          "type": "address"
        }
      ],
      "name": "setTokenSaleAddress",
      "outputs": [],
      "payable": false,
      "stateMutability": "nonpayable",
      "type": "function"
    },
    {
      "constant": false,
      "inputs": [],
      "name": "finalizePrivatesale",
      "outputs": [
        {
          "name": "success",
          "type": "bool"
        }
      ],
      "payable": false,
      "stateMutability": "nonpayable",
      "type": "function"
    },
    {
      "constant": false,
      "inputs": [],
      "name": "finalizePresale",
      "outputs": [
        {
          "name": "success",
          "type": "bool"
        }
      ],
      "payable": false,
      "stateMutability": "nonpayable",
      "type": "function"
    },
    {
      "constant": false,
      "inputs": [
        {
          "name": "_burnAmount",
          "type": "uint256"
        },
        {
          "name": "_ecoAmount",
          "type": "uint256"
        },
        {
          "name": "_airdropAmount",
          "type": "uint256"
        }
      ],
      "name": "finalizeCrowdsale",
      "outputs": [
        {
          "name": "success",
          "type": "bool"
        }
      ],
      "payable": false,
      "stateMutability": "nonpayable",
      "type": "function"
    },
    {
      "constant": false,
      "inputs": [
        {
          "name": "_value",
          "type": "uint256"
        }
      ],
      "name": "burn",
      "outputs": [],
      "payable": false,
      "stateMutability": "nonpayable",
      "type": "function"
    },
    {
      "constant": false,
      "inputs": [
        {
          "name": "_amount",
          "type": "uint256"
        }
      ],
      "name": "transferFromVest",
      "outputs": [],
      "payable": false,
      "stateMutability": "nonpayable",
      "type": "function"
    }
  ],
  "bytecode": "0x60606040526012600060146101000a81548160ff021916908360ff16021790555034156200002c57600080fd5b336000806101000a81548173ffffffffffffffffffffffffffffffffffffffff021916908373ffffffffffffffffffffffffffffffffffffffff160217905550600060149054906101000a900460ff1660ff16600a0a6323c3460002600381905550600060149054906101000a900460ff1660ff16600a0a63055d4a8002600681905550600060149054906101000a900460ff1660ff16600a0a6307270e0002600481905550600060149054906101000a900460ff1660ff16600a0a630aba950002600581905550600060149054906101000a900460ff1660ff16600a0a63055d4a8002600981905550600060149054906101000a900460ff1660ff16600a0a6307270e00026008819055506200015e600260085462000530640100000000026200234c179091906401000000009004565b600c81905550600c54600d81905550736876b854bc0e2c59dc448949d1caa5bf5bb08f54600f60006101000a81548173ffffffffffffffffffffffffffffffffffffffff021916908373ffffffffffffffffffffffffffffffffffffffff16021790555073cab76a29d35cc2f6b481112157675486180a560b601060006101000a81548173ffffffffffffffffffffffffffffffffffffffff021916908373ffffffffffffffffffffffffffffffffffffffff16021790555073b6d40fb512e7c824c6a33861b233ee50c263a950601160006101000a81548173ffffffffffffffffffffffffffffffffffffffff021916908373ffffffffffffffffffffffffffffffffffffffff160217905550734b1ccc3023c973a62984c865404f662e968c1fc1601260006101000a81548173ffffffffffffffffffffffffffffffffffffffff021916908373ffffffffffffffffffffffffffffffffffffffff16021790555073b718c3f9d9947993ba752622a15dc6bbca1d977d601360006101000a81548173ffffffffffffffffffffffffffffffffffffffff021916908373ffffffffffffffffffffffffffffffffffffffff160217905550735bcfcbde79895d3d6a115baf5386ae5463df2aaf601460006101000a81548173ffffffffffffffffffffffffffffffffffffffff021916908373ffffffffffffffffffffffffffffffffffffffff1602179055507348118545177666af8eb9a265a57558f4a2bdbd7f601560006101000a81548173ffffffffffffffffffffffffffffffffffffffff021916908373ffffffffffffffffffffffffffffffffffffffff16021790555062000404600f60009054906101000a900473ffffffffffffffffffffffffffffffffffffffff166006546200054c640100000000026200227c176401000000009004565b62000448601060009054906101000a900473ffffffffffffffffffffffffffffffffffffffff166004546200054c640100000000026200227c176401000000009004565b6200048c601160009054906101000a900473ffffffffffffffffffffffffffffffffffffffff166005546200054c640100000000026200227c176401000000009004565b620004d0601260009054906101000a900473ffffffffffffffffffffffffffffffffffffffff166008546200054c640100000000026200227c176401000000009004565b62000514601360009054906101000a900473ffffffffffffffffffffffffffffffffffffffff166009546200054c640100000000026200227c176401000000009004565b635c01cf00600a81905550635cf1c000600b8190555062000614565b60008082848115156200053f57fe5b0490508091505092915050565b620005ae81600160008573ffffffffffffffffffffffffffffffffffffffff1673ffffffffffffffffffffffffffffffffffffffff16815260200190815260200160002054620005f5640100000000026200232e179091906401000000009004565b600160008473ffffffffffffffffffffffffffffffffffffffff1673ffffffffffffffffffffffffffffffffffffffff168152602001908152602001600020819055505050565b60008082840190508381101515156200060a57fe5b8091505092915050565b61239380620006246000396000f3006060604052600436106101f9576000357c0100000000000000000000000000000000000000000000000000000000900463ffffffff16806306fdde03146101fe578063095ea7b31461028c578063122fe685146102e657806313ff962a1461033b5780631448b3ca1461036457806318160ddd146103b957806323b872dd146103e2578063258b5c061461045b5780632cfac6ec146104a8578063313ce567146104d157806331d2f89114610500578063324536eb1461055557806339c5a13e1461057e5780633c5e270f146105a757806342966c68146105fc578063597d46011461061f5780635afe52071461064c57806362205bd8146106855780636323b526146106b25780636d4980931461072b57806370a08231146107585780637348ac1f146107a55780638da5cb5b146107fa57806395d89b411461084f578063a0a6e940146108dd578063a1e7e21c1461090a578063a757ac4b14610933578063a9059cbb14610988578063aa30abf1146109e2578063b3a196e914610a37578063b9689cf314610a60578063c4694ec614610ab5578063caee330514610ade578063cdcb3cdb14610b07578063d02e140a14610b30578063d15334a514610b5d578063d22b1a0f14610b86578063d8c97f3414610baf578063dd62ed3e14610bd2578063f2fde38b14610c3e578063fb3ed5c714610c77575b600080fd5b341561020957600080fd5b610211610ca0565b6040518080602001828103825283818151815260200191508051906020019080838360005b83811015610251578082015181840152602081019050610236565b50505050905090810190601f16801561027e5780820380516001836020036101000a031916815260200191505b509250505060405180910390f35b341561029757600080fd5b6102cc600480803573ffffffffffffffffffffffffffffffffffffffff16906020019091908035906020019091905050610cd9565b604051808215151515815260200191505060405180910390f35b34156102f157600080fd5b6102f9610ded565b604051808273ffffffffffffffffffffffffffffffffffffffff1673ffffffffffffffffffffffffffffffffffffffff16815260200191505060405180910390f35b341561034657600080fd5b61034e610e13565b6040518082815260200191505060405180910390f35b341561036f57600080fd5b610377610e19565b604051808273ffffffffffffffffffffffffffffffffffffffff1673ffffffffffffffffffffffffffffffffffffffff16815260200191505060405180910390f35b34156103c457600080fd5b6103cc610e3f565b6040518082815260200191505060405180910390f35b34156103ed57600080fd5b610441600480803573ffffffffffffffffffffffffffffffffffffffff1690602001909190803573ffffffffffffffffffffffffffffffffffffffff16906020019091908035906020019091905050610e49565b604051808215151515815260200191505060405180910390f35b341561046657600080fd5b61048e600480803590602001909190803590602001909190803590602001909190505061108d565b604051808215151515815260200191505060405180910390f35b34156104b357600080fd5b6104bb6112e3565b6040518082815260200191505060405180910390f35b34156104dc57600080fd5b6104e46112e9565b604051808260ff1660ff16815260200191505060405180910390f35b341561050b57600080fd5b6105136112fc565b604051808273ffffffffffffffffffffffffffffffffffffffff1673ffffffffffffffffffffffffffffffffffffffff16815260200191505060405180910390f35b341561056057600080fd5b610568611322565b6040518082815260200191505060405180910390f35b341561058957600080fd5b610591611328565b6040518082815260200191505060405180910390f35b34156105b257600080fd5b6105ba61132e565b604051808273ffffffffffffffffffffffffffffffffffffffff1673ffffffffffffffffffffffffffffffffffffffff16815260200191505060405180910390f35b341561060757600080fd5b61061d6004808035906020019091905050611354565b005b341561062a57600080fd5b61063261158b565b604051808215151515815260200191505060405180910390f35b341561065757600080fd5b610683600480803573ffffffffffffffffffffffffffffffffffffffff1690602001909190505061159d565b005b341561069057600080fd5b61069861173c565b604051808215151515815260200191505060405180910390f35b34156106bd57600080fd5b610711600480803573ffffffffffffffffffffffffffffffffffffffff1690602001909190803573ffffffffffffffffffffffffffffffffffffffff1690602001909190803590602001909190505061174f565b604051808215151515815260200191505060405180910390f35b341561073657600080fd5b61073e61187d565b604051808215151515815260200191505060405180910390f35b341561076357600080fd5b61078f600480803573ffffffffffffffffffffffffffffffffffffffff16906020019091905050611890565b6040518082815260200191505060405180910390f35b34156107b057600080fd5b6107b86118d9565b604051808273ffffffffffffffffffffffffffffffffffffffff1673ffffffffffffffffffffffffffffffffffffffff16815260200191505060405180910390f35b341561080557600080fd5b61080d6118ff565b604051808273ffffffffffffffffffffffffffffffffffffffff1673ffffffffffffffffffffffffffffffffffffffff16815260200191505060405180910390f35b341561085a57600080fd5b610862611924565b6040518080602001828103825283818151815260200191508051906020019080838360005b838110156108a2578082015181840152602081019050610887565b50505050905090810190601f1680156108cf5780820380516001836020036101000a031916815260200191505b509250505060405180910390f35b34156108e857600080fd5b6108f061195d565b604051808215151515815260200191505060405180910390f35b341561091557600080fd5b61091d611ac8565b6040518082815260200191505060405180910390f35b341561093e57600080fd5b610946611ace565b604051808273ffffffffffffffffffffffffffffffffffffffff1673ffffffffffffffffffffffffffffffffffffffff16815260200191505060405180910390f35b341561099357600080fd5b6109c8600480803573ffffffffffffffffffffffffffffffffffffffff16906020019091908035906020019091905050611af4565b604051808215151515815260200191505060405180910390f35b34156109ed57600080fd5b6109f5611c27565b604051808273ffffffffffffffffffffffffffffffffffffffff1673ffffffffffffffffffffffffffffffffffffffff16815260200191505060405180910390f35b3415610a4257600080fd5b610a4a611c4d565b6040518082815260200191505060405180910390f35b3415610a6b57600080fd5b610a73611c53565b604051808273ffffffffffffffffffffffffffffffffffffffff1673ffffffffffffffffffffffffffffffffffffffff16815260200191505060405180910390f35b3415610ac057600080fd5b610ac8611c79565b6040518082815260200191505060405180910390f35b3415610ae957600080fd5b610af1611c7f565b6040518082815260200191505060405180910390f35b3415610b1257600080fd5b610b1a611c85565b6040518082815260200191505060405180910390f35b3415610b3b57600080fd5b610b43611c8b565b604051808215151515815260200191505060405180910390f35b3415610b6857600080fd5b610b70611df6565b6040518082815260200191505060405180910390f35b3415610b9157600080fd5b610b99611dfc565b6040518082815260200191505060405180910390f35b3415610bba57600080fd5b610bd06004808035906020019091905050611e02565b005b3415610bdd57600080fd5b610c28600480803573ffffffffffffffffffffffffffffffffffffffff1690602001909190803573ffffffffffffffffffffffffffffffffffffffff16906020019091905050612001565b6040518082815260200191505060405180910390f35b3415610c4957600080fd5b610c75600480803573ffffffffffffffffffffffffffffffffffffffff16906020019091905050612088565b005b3415610c8257600080fd5b610c8a6121dd565b6040518082815260200191505060405180910390f35b6040805190810160405280600d81526020017f5468652054697020546f6b656e0000000000000000000000000000000000000081525081565b600080821480610cf257506000610cf03385612001565b145b1515610cfd57600080fd5b81600260003373ffffffffffffffffffffffffffffffffffffffff1673ffffffffffffffffffffffffffffffffffffffff16815260200190815260200160002060008573ffffffffffffffffffffffffffffffffffffffff1673ffffffffffffffffffffffffffffffffffffffff168152602001908152602001600020819055508273ffffffffffffffffffffffffffffffffffffffff163373ffffffffffffffffffffffffffffffffffffffff167f8c5be1e5ebec7d5bd14f71427d1e84f3dd0314c0f7b2291e5b200ac8c7c3b925846040518082815260200191505060405180910390a36001905092915050565b601060009054906101000a900473ffffffffffffffffffffffffffffffffffffffff1681565b60065481565b601660009054906101000a900473ffffffffffffffffffffffffffffffffffffffff1681565b6000600354905090565b6000600115156016809054906101000a900460ff1615151480610ed75750600015156016809054906101000a900460ff161515148015610ed65750601360009054906101000a900473ffffffffffffffffffffffffffffffffffffffff1673ffffffffffffffffffffffffffffffffffffffff163373ffffffffffffffffffffffffffffffffffffffff16145b5b1515610ee257600080fd5b81610eed8533612001565b10151515610efa57600080fd5b610f0484836121e3565b610f0e838361227c565b610f9d82600260008773ffffffffffffffffffffffffffffffffffffffff1673ffffffffffffffffffffffffffffffffffffffff16815260200190815260200160002060003373ffffffffffffffffffffffffffffffffffffffff1673ffffffffffffffffffffffffffffffffffffffff1681526020019081526020016000205461231590919063ffffffff16565b600260008673ffffffffffffffffffffffffffffffffffffffff1673ffffffffffffffffffffffffffffffffffffffff16815260200190815260200160002060003373ffffffffffffffffffffffffffffffffffffffff1673ffffffffffffffffffffffffffffffffffffffff168152602001908152602001600020819055508273ffffffffffffffffffffffffffffffffffffffff168473ffffffffffffffffffffffffffffffffffffffff167fddf252ad1be2c89b69c2b068fc378daa952ba7f163c4a11628f55a4df523b3ef846040518082815260200191505060405180910390a3600190509392505050565b600080601660009054906101000a900473ffffffffffffffffffffffffffffffffffffffff1673ffffffffffffffffffffffffffffffffffffffff163373ffffffffffffffffffffffffffffffffffffffff161415156110ec57600080fd5b60011515601660159054906101000a900460ff1615151480156111215750600015156016809054906101000a900460ff161515145b151561112c57600080fd5b60055461115484611146878961232e90919063ffffffff16565b61232e90919063ffffffff16565b14151561116057600080fd5b61118b601160009054906101000a900473ffffffffffffffffffffffffffffffffffffffff16611890565b905060008111156112865784600e819055506111c9601360009054906101000a900473ffffffffffffffffffffffffffffffffffffffff168561227c565b6111f7601560009054906101000a900473ffffffffffffffffffffffffffffffffffffffff16600e5461227c565b611223601460009054906101000a900473ffffffffffffffffffffffffffffffffffffffff168461227c565b61124f601160009054906101000a900473ffffffffffffffffffffffffffffffffffffffff16826121e3565b600061127c601160009054906101000a900473ffffffffffffffffffffffffffffffffffffffff16611890565b14151561128557fe5b5b60016016806101000a81548160ff0219169083151502179055507ffdce249bb5494d2b556b2a29c2058ed83479e6c487605b5f9726b8f82a27e6cb816040518082815260200191505060405180910390a160019150509392505050565b60085481565b600060149054906101000a900460ff1681565b601160009054906101000a900473ffffffffffffffffffffffffffffffffffffffff1681565b60035481565b600d5481565b601260009054906101000a900473ffffffffffffffffffffffffffffffffffffffff1681565b60008060009054906101000a900473ffffffffffffffffffffffffffffffffffffffff1673ffffffffffffffffffffffffffffffffffffffff163373ffffffffffffffffffffffffffffffffffffffff161415156113b157600080fd5b600160003373ffffffffffffffffffffffffffffffffffffffff1673ffffffffffffffffffffffffffffffffffffffff1681526020019081526020016000205482111515156113ff57600080fd5b600115156016809054906101000a900460ff16151514151561142057600080fd5b33905061147582600160008473ffffffffffffffffffffffffffffffffffffffff1673ffffffffffffffffffffffffffffffffffffffff1681526020019081526020016000205461231590919063ffffffff16565b600160008373ffffffffffffffffffffffffffffffffffffffff1673ffffffffffffffffffffffffffffffffffffffff168152602001908152602001600020819055506114cd8260035461231590919063ffffffff16565b6003819055508073ffffffffffffffffffffffffffffffffffffffff167fcc16f5dbb4873280815c1ee09dbd06736cffcc184412cf7a71a0fdb75d397ca5836040518082815260200191505060405180910390a2600073ffffffffffffffffffffffffffffffffffffffff168173ffffffffffffffffffffffffffffffffffffffff167fddf252ad1be2c89b69c2b068fc378daa952ba7f163c4a11628f55a4df523b3ef846040518082815260200191505060405180910390a35050565b6016809054906101000a900460ff1681565b6000809054906101000a900473ffffffffffffffffffffffffffffffffffffffff1673ffffffffffffffffffffffffffffffffffffffff163373ffffffffffffffffffffffffffffffffffffffff161415156115f857600080fd5b6000601660009054906101000a900473ffffffffffffffffffffffffffffffffffffffff1673ffffffffffffffffffffffffffffffffffffffff1614151561163f57600080fd5b80601660006101000a81548173ffffffffffffffffffffffffffffffffffffffff021916908373ffffffffffffffffffffffffffffffffffffffff1602179055507f2e89f1eb44ea4d17129cacefd630726705f95be31ab4538d64054834f33dc262601660009054906101000a900473ffffffffffffffffffffffffffffffffffffffff1633604051808373ffffffffffffffffffffffffffffffffffffffff1673ffffffffffffffffffffffffffffffffffffffff1681526020018273ffffffffffffffffffffffffffffffffffffffff1673ffffffffffffffffffffffffffffffffffffffff1681526020019250505060405180910390a150565b601660149054906101000a900460ff1681565b6000601660009054906101000a900473ffffffffffffffffffffffffffffffffffffffff1673ffffffffffffffffffffffffffffffffffffffff163373ffffffffffffffffffffffffffffffffffffffff161415156117ad57600080fd5b6000821115156117bc57600080fd5b60008473ffffffffffffffffffffffffffffffffffffffff16141515156117e257600080fd5b816117ec84611890565b101515156117f957600080fd5b61180383836121e3565b61180d848361227c565b8373ffffffffffffffffffffffffffffffffffffffff168373ffffffffffffffffffffffffffffffffffffffff167fddf252ad1be2c89b69c2b068fc378daa952ba7f163c4a11628f55a4df523b3ef846040518082815260200191505060405180910390a3600190509392505050565b601660159054906101000a900460ff1681565b6000600160008373ffffffffffffffffffffffffffffffffffffffff1673ffffffffffffffffffffffffffffffffffffffff168152602001908152602001600020549050919050565b601360009054906101000a900473ffffffffffffffffffffffffffffffffffffffff1681565b6000809054906101000a900473ffffffffffffffffffffffffffffffffffffffff1681565b6040805190810160405280600381526020017f545454000000000000000000000000000000000000000000000000000000000081525081565b600080601660009054906101000a900473ffffffffffffffffffffffffffffffffffffffff1673ffffffffffffffffffffffffffffffffffffffff163373ffffffffffffffffffffffffffffffffffffffff161415156119bc57600080fd5b60001515601660159054906101000a900460ff1615151415156119de57600080fd5b611a09601060009054906101000a900473ffffffffffffffffffffffffffffffffffffffff16611890565b9050600081141515611a6e57611a41601160009054906101000a900473ffffffffffffffffffffffffffffffffffffffff168261227c565b611a6d601060009054906101000a900473ffffffffffffffffffffffffffffffffffffffff16826121e3565b5b6001601660156101000a81548160ff0219169083151502179055507fba77ddc9e26933f19061480be65d8ea3dcf88fb70efd476df9515333cabee8c4816040518082815260200191505060405180910390a1600191505090565b600e5481565b600f60009054906101000a900473ffffffffffffffffffffffffffffffffffffffff1681565b6000600115156016809054906101000a900460ff1615151480611b825750600015156016809054906101000a900460ff161515148015611b815750601360009054906101000a900473ffffffffffffffffffffffffffffffffffffffff1673ffffffffffffffffffffffffffffffffffffffff163373ffffffffffffffffffffffffffffffffffffffff16145b5b1515611b8d57600080fd5b81611b9733611890565b10151515611ba457600080fd5b611bae838361227c565b611bb833836121e3565b8273ffffffffffffffffffffffffffffffffffffffff163373ffffffffffffffffffffffffffffffffffffffff167fddf252ad1be2c89b69c2b068fc378daa952ba7f163c4a11628f55a4df523b3ef846040518082815260200191505060405180910390a36001905092915050565b601560009054906101000a900473ffffffffffffffffffffffffffffffffffffffff1681565b60045481565b601460009054906101000a900473ffffffffffffffffffffffffffffffffffffffff1681565b60095481565b600a5481565b60055481565b600080601660009054906101000a900473ffffffffffffffffffffffffffffffffffffffff1673ffffffffffffffffffffffffffffffffffffffff163373ffffffffffffffffffffffffffffffffffffffff16141515611cea57600080fd5b60001515601660149054906101000a900460ff161515141515611d0c57600080fd5b611d37600f60009054906101000a900473ffffffffffffffffffffffffffffffffffffffff16611890565b9050600081141515611d9c57611d6f601060009054906101000a900473ffffffffffffffffffffffffffffffffffffffff168261227c565b611d9b600f60009054906101000a900473ffffffffffffffffffffffffffffffffffffffff16826121e3565b5b6001601660146101000a81548160ff0219169083151502179055507f3b80683c9980176c21081652987df44d5f29314308fac7e98404e8db4155b710816040518082815260200191505060405180910390a1600191505090565b600c5481565b600b5481565b6000809054906101000a900473ffffffffffffffffffffffffffffffffffffffff1673ffffffffffffffffffffffffffffffffffffffff163373ffffffffffffffffffffffffffffffffffffffff16141515611e5d57600080fd5b600a5442111515611e6d57600080fd5b600081111515611e7c57600080fd5b600115156016809054906101000a900460ff161515141515611e9d57600080fd5b600b54421115611ef6576008548111151515611eb857600080fd5b611ee3601260009054906101000a900473ffffffffffffffffffffffffffffffffffffffff16611890565b8111151515611ef157600080fd5b611f41565b600c548111151515611f0757600080fd5b611f32601260009054906101000a900473ffffffffffffffffffffffffffffffffffffffff16611890565b8111151515611f4057600080fd5b5b611f4b338261227c565b611f77601260009054906101000a900473ffffffffffffffffffffffffffffffffffffffff16826121e3565b3373ffffffffffffffffffffffffffffffffffffffff16601260009054906101000a900473ffffffffffffffffffffffffffffffffffffffff1673ffffffffffffffffffffffffffffffffffffffff167fddf252ad1be2c89b69c2b068fc378daa952ba7f163c4a11628f55a4df523b3ef836040518082815260200191505060405180910390a350565b6000600260008473ffffffffffffffffffffffffffffffffffffffff1673ffffffffffffffffffffffffffffffffffffffff16815260200190815260200160002060008373ffffffffffffffffffffffffffffffffffffffff1673ffffffffffffffffffffffffffffffffffffffff16815260200190815260200160002054905092915050565b6000809054906101000a900473ffffffffffffffffffffffffffffffffffffffff1673ffffffffffffffffffffffffffffffffffffffff163373ffffffffffffffffffffffffffffffffffffffff161415156120e357600080fd5b600073ffffffffffffffffffffffffffffffffffffffff168173ffffffffffffffffffffffffffffffffffffffff161415151561211f57600080fd5b8073ffffffffffffffffffffffffffffffffffffffff166000809054906101000a900473ffffffffffffffffffffffffffffffffffffffff1673ffffffffffffffffffffffffffffffffffffffff167f8be0079c531659141344cd1fd0a4f28419497f9722a3daafe3b4186f6b6457e060405160405180910390a3806000806101000a81548173ffffffffffffffffffffffffffffffffffffffff021916908373ffffffffffffffffffffffffffffffffffffffff16021790555050565b60075481565b61223581600160008573ffffffffffffffffffffffffffffffffffffffff1673ffffffffffffffffffffffffffffffffffffffff1681526020019081526020016000205461231590919063ffffffff16565b600160008473ffffffffffffffffffffffffffffffffffffffff1673ffffffffffffffffffffffffffffffffffffffff168152602001908152602001600020819055505050565b6122ce81600160008573ffffffffffffffffffffffffffffffffffffffff1673ffffffffffffffffffffffffffffffffffffffff1681526020019081526020016000205461232e90919063ffffffff16565b600160008473ffffffffffffffffffffffffffffffffffffffff1673ffffffffffffffffffffffffffffffffffffffff168152602001908152602001600020819055505050565b600082821115151561232357fe5b818303905092915050565b600080828401905083811015151561234257fe5b8091505092915050565b600080828481151561235a57fe5b04905080915050929150505600a165627a7a723058201a2841568ed370b06437964259660f360af9088b3c48a756e262e462dbefb9b60029",
  "source": "pragma solidity ^0.4.18;\n\nimport \"zeppelin-solidity/contracts/math/SafeMath.sol\";\nimport \"zeppelin-solidity/contracts/ownership/Ownable.sol\";\nimport \"zeppelin-solidity/contracts/token/ERC20/ERC20.sol\";\n\n\ncontract TTTToken is ERC20, Ownable {\n\tusing SafeMath for uint;\n\n\tstring public constant name = \"The Tip Token\";\n\tstring public constant symbol = \"TTT\";\n\n\tuint8 public decimals = 18;\n\n\tmapping(address=>uint256) balances;\n\tmapping(address=>mapping(address=>uint256)) allowed;\n\n\t// Supply variables\n\tuint256 public totalSupply_;\n\tuint256 public presaleSupply;\n\tuint256 public crowdsaleSupply;\n\tuint256 public privatesaleSupply;\n\tuint256 public airdropSupply;\n\tuint256 public teamSupply;\n\tuint256 public ecoSupply;\n\n\t// Vest variables\n\tuint256 public firstVestStartsAt;\n\tuint256 public secondVestStartsAt;\n\tuint256 public firstVestAmount;\n\tuint256 public secondVestAmount;\n\n\tuint256 public crowdsaleBurnAmount;\n\n\t// Token sale addresses\n\taddress public privatesaleAddress;\n\taddress public presaleAddress;\n\taddress public crowdsaleAddress;\n\taddress public teamSupplyAddress;\n\taddress public ecoSupplyAddress;\n\taddress public crowdsaleAirdropAddress;\n\taddress public crowdsaleBurnAddress;\n\taddress public tokenSaleAddress;\n\n\t// Token sale state variables\n\tbool public privatesaleFinalized;\n\tbool public presaleFinalized;\n\tbool public crowdsaleFinalized;\n\n\tevent PrivatesaleFinalized(uint tokensRemaining);\n\tevent PresaleFinalized(uint tokensRemaining);\n\tevent CrowdsaleFinalized(uint tokensRemaining);\n\tevent Burn(address indexed burner, uint256 value);\n\tevent TokensaleAddressSet(address tSeller, address from);\n\n\tmodifier onlyTokenSale() {\n\t\trequire(msg.sender == tokenSaleAddress);\n\t\t_;\n\t}\n\n\tmodifier canItoSend() {\n\t\trequire(crowdsaleFinalized == true || (crowdsaleFinalized == false && msg.sender == ecoSupplyAddress));\n\t\t_;\n\t}\n\n\tfunction TTTToken() {\n\t\t// 600 million total supply divided into\n\t\t//\t\t90 million to privatesale address\n\t\t//\t\t120 million to presale address\n\t\t//\t\t180 million to crowdsale address\n\t\t//\t\t90 million to eco supply address\n\t\t//\t\t120 million to team supply address\n\t\ttotalSupply_ = 600000000 * 10**uint(decimals);\n\t\tprivatesaleSupply = 90000000 * 10**uint(decimals);\n\t\tpresaleSupply = 120000000 * 10**uint(decimals);\n\t\tcrowdsaleSupply = 180000000 * 10**uint(decimals);\n\t\tecoSupply = 90000000 * 10**uint(decimals);\n\t\tteamSupply = 120000000 * 10**uint(decimals);\n\n\t\tfirstVestAmount = teamSupply.div(2);\n\t\tsecondVestAmount = firstVestAmount;\n\n\t\tprivatesaleAddress = 0x6876b854Bc0E2c59dc448949d1Caa5BF5bb08F54;\n\t\tpresaleAddress = 0xcab76A29D35cc2f6B481112157675486180A560B;\n\t\tcrowdsaleAddress = 0xb6d40Fb512e7c824c6a33861b233eE50c263A950;\n\t\tteamSupplyAddress = 0x4b1CCC3023C973A62984C865404f662e968c1FC1;\n\t\tecoSupplyAddress = 0xb718C3f9D9947993BA752622a15dc6BBCA1d977d;\n\t\tcrowdsaleAirdropAddress = 0x5BcFCbdE79895D3D6A115Baf5386ae5463df2aAF;\n\t\tcrowdsaleBurnAddress = 0x48118545177666aF8eB9A265a57558f4A2bdbd7F;\n\n\t\taddToBalance(privatesaleAddress, privatesaleSupply);\n\t\taddToBalance(presaleAddress, presaleSupply);\n\t\taddToBalance(crowdsaleAddress, crowdsaleSupply);\n\t\taddToBalance(teamSupplyAddress, teamSupply);\n\t\taddToBalance(ecoSupplyAddress, ecoSupply);\n\n\t\t// 12/01/2018 @ 12:00am (UTC)\n\t\tfirstVestStartsAt = 1543622400;\n\t\t// 06/01/2019 @ 12:00am (UTC)\n\t\tsecondVestStartsAt = 1559347200;\n\t}\n\n\t// Transfer\n\tfunction transfer(address _to, uint256 _amount) public canItoSend returns (bool success) {\n\t\trequire(balanceOf(msg.sender) >= _amount);\n\t\taddToBalance(_to, _amount);\n\t\tdecrementBalance(msg.sender, _amount);\n\t\tTransfer(msg.sender, _to, _amount);\n\t\treturn true;\n\t}\n\n\t// Transfer from one address to another\n\tfunction transferFrom(address _from, address _to, uint256 _amount) public canItoSend returns (bool success) {\n\t\trequire(allowance(_from, msg.sender) >= _amount);\n\t\tdecrementBalance(_from, _amount);\n\t\taddToBalance(_to, _amount);\n\t\tallowed[_from][msg.sender] = allowed[_from][msg.sender].sub(_amount);\n\t\tTransfer(_from, _to, _amount);\n\t\treturn true;\n\t}\n\n\t// Function for token sell contract to call on transfers\n\tfunction transferFromTokenSell(address _to, address _from, uint256 _amount) external onlyTokenSale returns (bool success) {\n\t\trequire(_amount > 0);\n\t\trequire(_to != 0x0);\n\t\trequire(balanceOf(_from) >= _amount);\n\t\tdecrementBalance(_from, _amount);\n\t\taddToBalance(_to, _amount);\n\t\tTransfer(_from, _to, _amount);\n\t\treturn true;\n\t}\n\n\t// Approve another address a certain amount of TTT\n\tfunction approve(address _spender, uint256 _value) public returns (bool success) {\n\t\trequire((_value == 0) || (allowance(msg.sender, _spender) == 0));\n\t\tallowed[msg.sender][_spender] = _value;\n\t\tApproval(msg.sender, _spender, _value);\n\t\treturn true;\n\t}\n\n\t// Get an address's TTT allowance\n\tfunction allowance(address _owner, address _spender) public view returns (uint256 remaining) {\n\t\treturn allowed[_owner][_spender];\n\t}\n\n\t// Get TTT balance of an address\n\tfunction balanceOf(address _owner) public view returns (uint256 balance) {\n\t\treturn balances[_owner];\n\t}\n\n\t// Return total supply\n\tfunction totalSupply() public view returns (uint256 totalSupply) {\n\t\treturn totalSupply_;\n\t}\n\n\t// Set the tokenSell contract address, can only be set once\n\tfunction setTokenSaleAddress(address _tokenSaleAddress) external onlyOwner {\n\t\trequire(tokenSaleAddress == 0x0);\n\t\ttokenSaleAddress = _tokenSaleAddress;\n\t\tTokensaleAddressSet(tokenSaleAddress, msg.sender);\n\t}\n\n\t// Finalize private. If there are leftover TTT, overflow to presale\n\tfunction finalizePrivatesale() external onlyTokenSale returns (bool success) {\n\t\trequire(privatesaleFinalized == false);\n\t\tuint256 amount = balanceOf(privatesaleAddress);\n\t\tif (amount != 0) {\n\t\t\taddToBalance(presaleAddress, amount);\n\t\t\tdecrementBalance(privatesaleAddress, amount);\n\t\t}\n\t\tprivatesaleFinalized = true;\n\t\tPrivatesaleFinalized(amount);\n\t\treturn true;\n\t}\n\n\t// Finalize presale. If there are leftover TTT, overflow to crowdsale\n\tfunction finalizePresale() external onlyTokenSale returns (bool success) {\n\t\trequire(presaleFinalized == false);\n\t\tuint256 amount = balanceOf(presaleAddress);\n\t\tif (amount != 0) {\n\t\t\taddToBalance(crowdsaleAddress, amount);\n\t\t\tdecrementBalance(presaleAddress, amount);\n\t\t}\n\t\tpresaleFinalized = true;\n\t\tPresaleFinalized(amount);\n\t\treturn true;\n\t}\n\n\t// Finalize crowdsale. If there are leftover TTT, add 10% to airdrop, 20% to ecosupply, burn 70% at a later date\n\tfunction finalizeCrowdsale(uint256 _burnAmount, uint256 _ecoAmount, uint256 _airdropAmount) external onlyTokenSale returns(bool success) {\n\t\trequire(presaleFinalized == true && crowdsaleFinalized == false);\n\t\trequire((_burnAmount.add(_ecoAmount).add(_airdropAmount)) == crowdsaleSupply);\n\t\tuint256 amount = balanceOf(crowdsaleAddress);\n\t\tif (amount > 0) {\n\t\t\tcrowdsaleBurnAmount = _burnAmount;\n\t\t\taddToBalance(ecoSupplyAddress, _ecoAmount);\n\t\t\taddToBalance(crowdsaleBurnAddress, crowdsaleBurnAmount);\n\t\t\taddToBalance(crowdsaleAirdropAddress, _airdropAmount);\n\t\t\tdecrementBalance(crowdsaleAddress, amount);\n\t\t\tassert(balanceOf(crowdsaleAddress) == 0);\n\t\t}\n\t\tcrowdsaleFinalized = true;\n\t\tCrowdsaleFinalized(amount);\n\t\treturn true;\n\t}\n\n\t/**\n\t* @dev Burns a specific amount of tokens. * added onlyOwner, as this will only happen from owner, if there are crowdsale leftovers\n\t* @param _value The amount of token to be burned.\n\t* @dev imported from https://github.com/OpenZeppelin/zeppelin-solidity/blob/master/contracts/token/ERC20/BurnableToken.sol\n\t*/\n\tfunction burn(uint256 _value) public onlyOwner {\n\t\trequire(_value <= balances[msg.sender]);\n\t\trequire(crowdsaleFinalized == true);\n\t\t// no need to require value <= totalSupply, since that would imply the\n\t\t// sender's balance is greater than the totalSupply, which *should* be an assertion failure\n\n\t\taddress burner = msg.sender;\n\t\tbalances[burner] = balances[burner].sub(_value);\n\t\ttotalSupply_ = totalSupply_.sub(_value);\n\t\tBurn(burner, _value);\n\t\tTransfer(burner, address(0), _value);\n\t}\n\n\t// Transfer tokens from the vested address. 50% available 12/01/2018, the rest available 06/01/2019\n\tfunction transferFromVest(uint256 _amount) public onlyOwner {\n\t\trequire(block.timestamp > firstVestStartsAt);\n\t\trequire(_amount > 0);\n\t\trequire(crowdsaleFinalized == true);\n\t\tif(block.timestamp > secondVestStartsAt) {\n\t\t\t// all tokens available for vest withdrawl\n\t\t\trequire(_amount <= teamSupply);\n\t\t\trequire(_amount <= balanceOf(teamSupplyAddress));\n\t\t} else {\n\t\t\t// only first vest available\n\t\t\trequire(_amount <= firstVestAmount);\n\t\t\trequire(_amount <= balanceOf(teamSupplyAddress));\n\t\t}\n\t\taddToBalance(msg.sender, _amount);\n\t\tdecrementBalance(teamSupplyAddress, _amount);\n\t\tTransfer(teamSupplyAddress, msg.sender, _amount);\n\t}\n\n\t// Add to balance\n\tfunction addToBalance(address _address, uint _amount) internal {\n\t\tbalances[_address] = balances[_address].add(_amount);\n\t}\n\n\t// Remove from balance\n\tfunction decrementBalance(address _address, uint _amount) internal {\n\t\tbalances[_address] = balances[_address].sub(_amount);\n\t}\n\n}\n",
  "sourcePath": "C:\\TTTToken\\contracts\\TTTToken.sol",
  "compiler": {
    "name": "solc",
    "version": "0.4.21+commit.dfe3193c.Emscripten.clang"
  },
  "schemaVersion": "2.0.0",
  "updatedAt": "2018-04-06T17:41:42.977Z"
}