{
  "contractName": "TTTTokenSell",
  "abi": [
    {
      "constant": true,
      "inputs": [],
      "name": "endsAt",
      "outputs": [
        {
          "name": "",
          "type": "uint256"
        }
      ],
      "payable": false,
      "stateMutability": "view",
      "type": "function"
    },
    {
      "constant": true,
      "inputs": [],
      "name": "presaleAddress",
      "outputs": [
        {
          "name": "",
          "type": "address"
        }
      ],
      "payable": false,
      "stateMutability": "view",
      "type": "function"
    },
    {
      "constant": false,
      "inputs": [
        {
          "name": "addrs",
          "type": "address[]"
        }
      ],
      "name": "removeAddressesFromWhitelist",
      "outputs": [
        {
          "name": "success",
          "type": "bool"
        }
      ],
      "payable": false,
      "stateMutability": "nonpayable",
      "type": "function"
    },
    {
      "constant": false,
      "inputs": [
        {
          "name": "addr",
          "type": "address"
        }
      ],
      "name": "removeAddressFromWhitelist",
      "outputs": [
        {
          "name": "success",
          "type": "bool"
        }
      ],
      "payable": false,
      "stateMutability": "nonpayable",
      "type": "function"
    },
    {
      "constant": true,
      "inputs": [],
      "name": "crowdsaleAddress",
      "outputs": [
        {
          "name": "",
          "type": "address"
        }
      ],
      "payable": false,
      "stateMutability": "view",
      "type": "function"
    },
    {
      "constant": false,
      "inputs": [],
      "name": "unpause",
      "outputs": [],
      "payable": false,
      "stateMutability": "nonpayable",
      "type": "function"
    },
    {
      "constant": true,
      "inputs": [],
      "name": "weiRaised",
      "outputs": [
        {
          "name": "",
          "type": "uint256"
        }
      ],
      "payable": false,
      "stateMutability": "view",
      "type": "function"
    },
    {
      "constant": true,
      "inputs": [],
      "name": "wallet",
      "outputs": [
        {
          "name": "",
          "type": "address"
        }
      ],
      "payable": false,
      "stateMutability": "view",
      "type": "function"
    },
    {
      "constant": true,
      "inputs": [],
      "name": "paused",
      "outputs": [
        {
          "name": "",
          "type": "bool"
        }
      ],
      "payable": false,
      "stateMutability": "view",
      "type": "function"
    },
    {
      "constant": false,
      "inputs": [
        {
          "name": "addr",
          "type": "address"
        }
      ],
      "name": "addAddressToWhitelist",
      "outputs": [
        {
          "name": "success",
          "type": "bool"
        }
      ],
      "payable": false,
      "stateMutability": "nonpayable",
      "type": "function"
    },
    {
      "constant": false,
      "inputs": [],
      "name": "pause",
      "outputs": [],
      "payable": false,
      "stateMutability": "nonpayable",
      "type": "function"
    },
    {
      "constant": true,
      "inputs": [],
      "name": "owner",
      "outputs": [
        {
          "name": "",
          "type": "address"
        }
      ],
      "payable": false,
      "stateMutability": "view",
      "type": "function"
    },
    {
      "constant": true,
      "inputs": [
        {
          "name": "",
          "type": "address"
        }
      ],
      "name": "whitelist",
      "outputs": [
        {
          "name": "",
          "type": "bool"
        }
      ],
      "payable": false,
      "stateMutability": "view",
      "type": "function"
    },
    {
      "constant": true,
      "inputs": [],
      "name": "tokenAddress",
      "outputs": [
        {
          "name": "",
          "type": "address"
        }
      ],
      "payable": false,
      "stateMutability": "view",
      "type": "function"
    },
    {
      "constant": true,
      "inputs": [],
      "name": "privatesaleAddress",
      "outputs": [
        {
          "name": "",
          "type": "address"
        }
      ],
      "payable": false,
      "stateMutability": "view",
      "type": "function"
    },
    {
      "constant": true,
      "inputs": [],
      "name": "startsAt",
      "outputs": [
        {
          "name": "",
          "type": "uint256"
        }
      ],
      "payable": false,
      "stateMutability": "view",
      "type": "function"
    },
    {
      "constant": true,
      "inputs": [],
      "name": "currentPhaseRate",
      "outputs": [
        {
          "name": "",
          "type": "uint256"
        }
      ],
      "payable": false,
      "stateMutability": "view",
      "type": "function"
    },
    {
      "constant": false,
      "inputs": [
        {
          "name": "addrs",
          "type": "address[]"
        }
      ],
      "name": "addAddressesToWhitelist",
      "outputs": [
        {
          "name": "success",
          "type": "bool"
        }
      ],
      "payable": false,
      "stateMutability": "nonpayable",
      "type": "function"
    },
    {
      "constant": false,
      "inputs": [
        {
          "name": "newOwner",
          "type": "address"
        }
      ],
      "name": "transferOwnership",
      "outputs": [],
      "payable": false,
      "stateMutability": "nonpayable",
      "type": "function"
    },
    {
      "constant": true,
      "inputs": [],
      "name": "token",
      "outputs": [
        {
          "name": "",
          "type": "address"
        }
      ],
      "payable": false,
      "stateMutability": "view",
      "type": "function"
    },
    {
      "inputs": [
        {
          "name": "_tokenAddress",
          "type": "address"
        }
      ],
      "payable": false,
      "stateMutability": "nonpayable",
      "type": "constructor"
    },
    {
      "payable": true,
      "stateMutability": "payable",
      "type": "fallback"
    },
    {
      "anonymous": false,
      "inputs": [
        {
          "indexed": false,
          "name": "beneficiary",
          "type": "address"
        },
        {
          "indexed": false,
          "name": "amountRaised",
          "type": "uint256"
        }
      ],
      "name": "AmountRaised",
      "type": "event"
    },
    {
      "anonymous": false,
      "inputs": [
        {
          "indexed": true,
          "name": "purchaser",
          "type": "address"
        },
        {
          "indexed": false,
          "name": "value",
          "type": "uint256"
        },
        {
          "indexed": false,
          "name": "amount",
          "type": "uint256"
        }
      ],
      "name": "TokenPurchase",
      "type": "event"
    },
    {
      "anonymous": false,
      "inputs": [],
      "name": "Pause",
      "type": "event"
    },
    {
      "anonymous": false,
      "inputs": [],
      "name": "Unpause",
      "type": "event"
    },
    {
      "anonymous": false,
      "inputs": [
        {
          "indexed": false,
          "name": "addr",
          "type": "address"
        }
      ],
      "name": "WhitelistedAddressAdded",
      "type": "event"
    },
    {
      "anonymous": false,
      "inputs": [
        {
          "indexed": false,
          "name": "addr",
          "type": "address"
        }
      ],
      "name": "WhitelistedAddressRemoved",
      "type": "event"
    },
    {
      "anonymous": false,
      "inputs": [
        {
          "indexed": true,
          "name": "previousOwner",
          "type": "address"
        },
        {
          "indexed": true,
          "name": "newOwner",
          "type": "address"
        }
      ],
      "name": "OwnershipTransferred",
      "type": "event"
    },
    {
      "constant": false,
      "inputs": [
        {
          "name": "_phase",
          "type": "uint256"
        },
        {
          "name": "_startsAt",
          "type": "uint256"
        },
        {
          "name": "_endsAt",
          "type": "uint256"
        }
      ],
      "name": "startPhase",
      "outputs": [],
      "payable": false,
      "stateMutability": "nonpayable",
      "type": "function"
    },
    {
      "constant": false,
      "inputs": [
        {
          "name": "_to",
          "type": "address"
        }
      ],
      "name": "buyTokens",
      "outputs": [],
      "payable": true,
      "stateMutability": "payable",
      "type": "function"
    }
  ],
  "bytecode": "0x60606040526000600260006101000a81548160ff021916908315150217905550341561002a57600080fd5b60405160208061174083398101604052808051906020019091905050336000806101000a81548173ffffffffffffffffffffffffffffffffffffffff021916908373ffffffffffffffffffffffffffffffffffffffff16021790555073ea2d2c0223af6e9c83db343aef2194564b27ee87600360006101000a81548173ffffffffffffffffffffffffffffffffffffffff021916908373ffffffffffffffffffffffffffffffffffffffff1602179055506000600a60006101000a81548160ff021916908360028111156100fa57fe5b0217905550736876b854bc0e2c59dc448949d1caa5bf5bb08f54600460006101000a81548173ffffffffffffffffffffffffffffffffffffffff021916908373ffffffffffffffffffffffffffffffffffffffff16021790555073cab76a29d35cc2f6b481112157675486180a560b600560006101000a81548173ffffffffffffffffffffffffffffffffffffffff021916908373ffffffffffffffffffffffffffffffffffffffff16021790555073b6d40fb512e7c824c6a33861b233ee50c263a950600660006101000a81548173ffffffffffffffffffffffffffffffffffffffff021916908373ffffffffffffffffffffffffffffffffffffffff16021790555080600260016101000a81548173ffffffffffffffffffffffffffffffffffffffff021916908373ffffffffffffffffffffffffffffffffffffffff160217905550506114f18061024f6000396000f300606060405260043610610128576000357c0100000000000000000000000000000000000000000000000000000000900463ffffffff1680630a09284a14610133578063122fe6851461015c5780631f8c07b0146101b157806324953eaa146101e6578063286dd3f51461025857806331d2f891146102a95780633f4ba83a146102fe5780634042b66f14610313578063521eb2731461033c5780635c975abb146103915780637b9417c8146103be5780638456cb591461040f5780638da5cb5b146104245780639b19251a146104795780639d76ea58146104ca578063a757ac4b1461051f578063af46868214610574578063cc326e1c1461059d578063e2ec6ec3146105c6578063ec8ac4d814610638578063f2fde38b14610666578063fc0c546a1461069f575b610131336106f4565b005b341561013e57600080fd5b610146610995565b6040518082815260200191505060405180910390f35b341561016757600080fd5b61016f61099b565b604051808273ffffffffffffffffffffffffffffffffffffffff1673ffffffffffffffffffffffffffffffffffffffff16815260200191505060405180910390f35b34156101bc57600080fd5b6101e460048080359060200190919080359060200190919080359060200190919050506109c1565b005b34156101f157600080fd5b61023e600480803590602001908201803590602001908080602002602001604051908101604052809392919081815260200183836020028082843782019150505050505091905050610ab1565b604051808215151515815260200191505060405180910390f35b341561026357600080fd5b61028f600480803573ffffffffffffffffffffffffffffffffffffffff16906020019091905050610b5a565b604051808215151515815260200191505060405180910390f35b34156102b457600080fd5b6102bc610cce565b604051808273ffffffffffffffffffffffffffffffffffffffff1673ffffffffffffffffffffffffffffffffffffffff16815260200191505060405180910390f35b341561030957600080fd5b610311610cf4565b005b341561031e57600080fd5b610326610db3565b6040518082815260200191505060405180910390f35b341561034757600080fd5b61034f610db9565b604051808273ffffffffffffffffffffffffffffffffffffffff1673ffffffffffffffffffffffffffffffffffffffff16815260200191505060405180910390f35b341561039c57600080fd5b6103a4610ddf565b604051808215151515815260200191505060405180910390f35b34156103c957600080fd5b6103f5600480803573ffffffffffffffffffffffffffffffffffffffff16906020019091905050610df2565b604051808215151515815260200191505060405180910390f35b341561041a57600080fd5b610422610f66565b005b341561042f57600080fd5b610437611026565b604051808273ffffffffffffffffffffffffffffffffffffffff1673ffffffffffffffffffffffffffffffffffffffff16815260200191505060405180910390f35b341561048457600080fd5b6104b0600480803573ffffffffffffffffffffffffffffffffffffffff1690602001909190505061104b565b604051808215151515815260200191505060405180910390f35b34156104d557600080fd5b6104dd61106b565b604051808273ffffffffffffffffffffffffffffffffffffffff1673ffffffffffffffffffffffffffffffffffffffff16815260200191505060405180910390f35b341561052a57600080fd5b610532611091565b604051808273ffffffffffffffffffffffffffffffffffffffff1673ffffffffffffffffffffffffffffffffffffffff16815260200191505060405180910390f35b341561057f57600080fd5b6105876110b7565b6040518082815260200191505060405180910390f35b34156105a857600080fd5b6105b06110bd565b6040518082815260200191505060405180910390f35b34156105d157600080fd5b61061e6004808035906020019082018035906020019080806020026020016040519081016040528093929190818152602001838360200280828437820191505050505050919050506110c3565b604051808215151515815260200191505060405180910390f35b610664600480803573ffffffffffffffffffffffffffffffffffffffff169060200190919050506106f4565b005b341561067157600080fd5b61069d600480803573ffffffffffffffffffffffffffffffffffffffff1690602001909190505061116c565b005b34156106aa57600080fd5b6106b26112c1565b604051808273ffffffffffffffffffffffffffffffffffffffff1673ffffffffffffffffffffffffffffffffffffffff16815260200191505060405180910390f35b6000806000600854421015801561070d57506009544211155b151561071557fe5b600160003373ffffffffffffffffffffffffffffffffffffffff1673ffffffffffffffffffffffffffffffffffffffff16815260200190815260200160002060009054906101000a900460ff16151561076d57600080fd5b600260009054906101000a900460ff1615151561078957600080fd5b60008473ffffffffffffffffffffffffffffffffffffffff16141515156107af57600080fd5b6000341115156107be57600080fd5b6107c66112e7565b925060008373ffffffffffffffffffffffffffffffffffffffff16141515156107eb57fe5b349150600b548202905061080a826007546113f790919063ffffffff16565b600781905550600360009054906101000a900473ffffffffffffffffffffffffffffffffffffffff1673ffffffffffffffffffffffffffffffffffffffff166108fc839081150290604051600060405180830381858888f19350505050151561087257600080fd5b600c60009054906101000a900473ffffffffffffffffffffffffffffffffffffffff1673ffffffffffffffffffffffffffffffffffffffff16636323b5268585846000604051602001526040518463ffffffff167c0100000000000000000000000000000000000000000000000000000000028152600401808473ffffffffffffffffffffffffffffffffffffffff1673ffffffffffffffffffffffffffffffffffffffff1681526020018373ffffffffffffffffffffffffffffffffffffffff1673ffffffffffffffffffffffffffffffffffffffff1681526020018281526020019350505050602060405180830381600087803b151561097357600080fd5b6102c65a03f1151561098457600080fd5b505050604051805190505050505050565b60095481565b600560009054906101000a900473ffffffffffffffffffffffffffffffffffffffff1681565b6000809054906101000a900473ffffffffffffffffffffffffffffffffffffffff1673ffffffffffffffffffffffffffffffffffffffff163373ffffffffffffffffffffffffffffffffffffffff16141515610a1c57600080fd5b60008310158015610a2e575060028311155b1515610a3957600080fd5b60095482118015610a4957508181115b1515610a5457600080fd5b826002811115610a6057fe5b600a60006101000a81548160ff02191690836002811115610a7d57fe5b0217905550610a8a611415565b600b819055506000600b54111515610a9e57fe5b8160088190555080600981905550505050565b6000806000809054906101000a900473ffffffffffffffffffffffffffffffffffffffff1673ffffffffffffffffffffffffffffffffffffffff163373ffffffffffffffffffffffffffffffffffffffff16141515610b0f57600080fd5b600090505b8251811015610b5457610b3d8382815181101515610b2e57fe5b90602001906020020151610b5a565b15610b4757600191505b8080600101915050610b14565b50919050565b60008060009054906101000a900473ffffffffffffffffffffffffffffffffffffffff1673ffffffffffffffffffffffffffffffffffffffff163373ffffffffffffffffffffffffffffffffffffffff16141515610bb757600080fd5b600160008373ffffffffffffffffffffffffffffffffffffffff1673ffffffffffffffffffffffffffffffffffffffff16815260200190815260200160002060009054906101000a900460ff1615610cc9576000600160008473ffffffffffffffffffffffffffffffffffffffff1673ffffffffffffffffffffffffffffffffffffffff16815260200190815260200160002060006101000a81548160ff0219169083151502179055507ff1abf01a1043b7c244d128e8595cf0c1d10743b022b03a02dffd8ca3bf729f5a82604051808273ffffffffffffffffffffffffffffffffffffffff1673ffffffffffffffffffffffffffffffffffffffff16815260200191505060405180910390a1600190505b919050565b600660009054906101000a900473ffffffffffffffffffffffffffffffffffffffff1681565b6000809054906101000a900473ffffffffffffffffffffffffffffffffffffffff1673ffffffffffffffffffffffffffffffffffffffff163373ffffffffffffffffffffffffffffffffffffffff16141515610d4f57600080fd5b600260009054906101000a900460ff161515610d6a57600080fd5b6000600260006101000a81548160ff0219169083151502179055507f7805862f689e2f13df9f062ff482ad3ad112aca9e0847911ed832e158c525b3360405160405180910390a1565b60075481565b600360009054906101000a900473ffffffffffffffffffffffffffffffffffffffff1681565b600260009054906101000a900460ff1681565b60008060009054906101000a900473ffffffffffffffffffffffffffffffffffffffff1673ffffffffffffffffffffffffffffffffffffffff163373ffffffffffffffffffffffffffffffffffffffff16141515610e4f57600080fd5b600160008373ffffffffffffffffffffffffffffffffffffffff1673ffffffffffffffffffffffffffffffffffffffff16815260200190815260200160002060009054906101000a900460ff161515610f615760018060008473ffffffffffffffffffffffffffffffffffffffff1673ffffffffffffffffffffffffffffffffffffffff16815260200190815260200160002060006101000a81548160ff0219169083151502179055507fd1bba68c128cc3f427e5831b3c6f99f480b6efa6b9e80c757768f6124158cc3f82604051808273ffffffffffffffffffffffffffffffffffffffff1673ffffffffffffffffffffffffffffffffffffffff16815260200191505060405180910390a1600190505b919050565b6000809054906101000a900473ffffffffffffffffffffffffffffffffffffffff1673ffffffffffffffffffffffffffffffffffffffff163373ffffffffffffffffffffffffffffffffffffffff16141515610fc157600080fd5b600260009054906101000a900460ff16151515610fdd57600080fd5b6001600260006101000a81548160ff0219169083151502179055507f6985a02210a168e66602d3235cb6db0e70f92b3ba4d376a33c0f3d9434bff62560405160405180910390a1565b6000809054906101000a900473ffffffffffffffffffffffffffffffffffffffff1681565b60016020528060005260406000206000915054906101000a900460ff1681565b600260019054906101000a900473ffffffffffffffffffffffffffffffffffffffff1681565b600460009054906101000a900473ffffffffffffffffffffffffffffffffffffffff1681565b60085481565b600b5481565b6000806000809054906101000a900473ffffffffffffffffffffffffffffffffffffffff1673ffffffffffffffffffffffffffffffffffffffff163373ffffffffffffffffffffffffffffffffffffffff1614151561112157600080fd5b600090505b82518110156111665761114f838281518110151561114057fe5b90602001906020020151610df2565b1561115957600191505b8080600101915050611126565b50919050565b6000809054906101000a900473ffffffffffffffffffffffffffffffffffffffff1673ffffffffffffffffffffffffffffffffffffffff163373ffffffffffffffffffffffffffffffffffffffff161415156111c757600080fd5b600073ffffffffffffffffffffffffffffffffffffffff168173ffffffffffffffffffffffffffffffffffffffff161415151561120357600080fd5b8073ffffffffffffffffffffffffffffffffffffffff166000809054906101000a900473ffffffffffffffffffffffffffffffffffffffff1673ffffffffffffffffffffffffffffffffffffffff167f8be0079c531659141344cd1fd0a4f28419497f9722a3daafe3b4186f6b6457e060405160405180910390a3806000806101000a81548173ffffffffffffffffffffffffffffffffffffffff021916908373ffffffffffffffffffffffffffffffffffffffff16021790555050565b600c60009054906101000a900473ffffffffffffffffffffffffffffffffffffffff1681565b60008060028111156112f557fe5b600a60009054906101000a900460ff16600281111561131057fe5b141561134057600460009054906101000a900473ffffffffffffffffffffffffffffffffffffffff1690506113f4565b6001600281111561134d57fe5b600a60009054906101000a900460ff16600281111561136857fe5b141561139857600560009054906101000a900473ffffffffffffffffffffffffffffffffffffffff1690506113f4565b6002808111156113a457fe5b600a60009054906101000a900460ff1660028111156113bf57fe5b14156113ef57600660009054906101000a900473ffffffffffffffffffffffffffffffffffffffff1690506113f4565b600090505b90565b600080828401905083811015151561140b57fe5b8091505092915050565b600080600281111561142357fe5b600a60009054906101000a900460ff16600281111561143e57fe5b141561144e576132c890506114c2565b6001600281111561145b57fe5b600a60009054906101000a900460ff16600281111561147657fe5b14156114865761261690506114c2565b60028081111561149257fe5b600a60009054906101000a900460ff1660028111156114ad57fe5b14156114bd576121de90506114c2565b600090505b905600a165627a7a72305820468abc96b654c51f59f114e42d91a00755981d9e78b6d55207bb94de6846339c0029",
  "source": "pragma solidity ^0.4.18;\r\n\r\nimport 'zeppelin-solidity/contracts/math/SafeMath.sol';\r\nimport \"zeppelin-solidity/contracts/ownership/Whitelist.sol\";\r\nimport \"zeppelin-solidity/contracts/lifecycle/Pausable.sol\";\r\nimport \"./TTTToken.sol\";\r\n\r\ncontract TTTTokenSell is Whitelist, Pausable {\r\n\tusing SafeMath for uint;\r\n\r\n\t// TTTToken contract address\r\n\taddress public tokenAddress;\r\n\taddress public wallet;\r\n\taddress public privatesaleAddress;\r\n\taddress public presaleAddress;\r\n\taddress public crowdsaleAddress;\r\n\r\n\t// Amount of wei currently raised\r\n\tuint256 public weiRaised;\r\n\r\n\t// Variables for phase start/end\r\n\tuint256 public startsAt;\r\n\tuint256 public endsAt;\r\n\r\n\tenum CurrentPhase { Privatesale, Presale, Crowdsale }\r\n\r\n\tCurrentPhase currentPhase;\r\n\tuint public currentPhaseRate;\r\n\r\n\tTTTToken public token;\r\n\r\n\t// Emitted at the end of each phase\r\n\tevent AmountRaised(address beneficiary, uint amountRaised);\r\n\t// Emitted on token purchase\r\n\tevent TokenPurchase(address indexed purchaser, uint256 value, uint256 amount);\r\n\r\n\tmodifier tokenPhaseIsActive() {\r\n\t\tassert(now >= startsAt && now <= endsAt);\r\n\t\t_;\r\n\t}\r\n\r\n\tfunction TTTTokenSell(address _tokenAddress) {\r\n\t\twallet = 0xea2d2c0223af6e9c83db343aef2194564b27ee87;\r\n\t\t// start sell at private sell\r\n\t\tcurrentPhase = CurrentPhase.Privatesale;\r\n\t\tprivatesaleAddress = 0x6876b854Bc0E2c59dc448949d1Caa5BF5bb08F54;\r\n\t\tpresaleAddress = 0xcab76A29D35cc2f6B481112157675486180A560B;\r\n\t\tcrowdsaleAddress = 0xb6d40Fb512e7c824c6a33861b233eE50c263A950;\r\n\t\ttokenAddress = _tokenAddress;\r\n\t}\r\n\r\n\tfunction startPhase(uint _phase, uint256 _startsAt, uint256 _endsAt) external onlyOwner {\r\n\t\trequire(_phase >= 0 && _phase <= 2);\r\n\t\trequire(_startsAt > endsAt && _endsAt > _startsAt);\r\n\t\tcurrentPhase = CurrentPhase(_phase);\r\n\t\tcurrentPhaseRate = getPhaseRate();\r\n\t\tassert(currentPhaseRate > 0);\r\n\t\tstartsAt = _startsAt;\r\n\t\tendsAt = _endsAt;\r\n\t}\r\n\r\n\tfunction buyTokens(address _to) tokenPhaseIsActive onlyWhitelisted whenNotPaused payable {\r\n\t\trequire(_to != 0x0);\r\n\t\trequire(msg.value > 0);\r\n\t\taddress from = getPhaseAddress();\r\n\t\tassert(from != 0x0);\r\n\t\tuint256 weiAmount = msg.value;\r\n\t\tuint256 tokens = weiAmount * currentPhaseRate;\r\n\t\tweiRaised = weiRaised.add(weiAmount);\r\n\t\twallet.transfer(weiAmount);\r\n\t\ttoken.transferFromTokenSell(_to, from, tokens);\r\n\t}\r\n\r\n\t// To contribute, send a value transaction to the token sell Address.\r\n\t// Please include at least 100 000 gas.\r\n\tfunction () payable {\r\n\t\tbuyTokens(msg.sender);\r\n\t}\r\n\r\n\tfunction getPhaseAddress() internal returns (address phase) {\r\n\t\tif(currentPhase == CurrentPhase.Privatesale)\r\n\t\t\treturn privatesaleAddress;\r\n\t\telse if(currentPhase == CurrentPhase.Presale)\r\n\t\t\treturn presaleAddress;\r\n\t\telse if(currentPhase == CurrentPhase.Crowdsale)\r\n\t\t\treturn crowdsaleAddress;\r\n\t\treturn 0x0;\r\n\t}\r\n\r\n\t// Amount of TTT per 1 ether. Will be updated closed to deployment\r\n\tfunction getPhaseRate() internal returns (uint rate) {\r\n\t\tif(currentPhase == CurrentPhase.Privatesale)\r\n\t\t\treturn 13000;\r\n\t\telse if(currentPhase == CurrentPhase.Presale)\r\n\t\t\treturn 9750;\r\n\t\telse if(currentPhase == CurrentPhase.Crowdsale)\r\n\t\t\treturn 8670;\r\n\t\treturn 0;\r\n\t}\r\n}\r\n",
  "sourcePath": "C:\\TTTToken\\contracts\\TTTTokenSell.sol",
  "compiler": {
    "name": "solc",
    "version": "0.4.19+commit.c4cbbb05.Emscripten.clang"
  },
  "schemaVersion": "2.0.0",
  "updatedAt": "2018-04-04T22:44:42.294Z"
}