{
  "contractName": "TTTToken",
  "abi": [
    {
      "constant": true,
      "inputs": [],
      "name": "name",
      "outputs": [
        {
          "name": "",
          "type": "string"
        }
      ],
      "payable": false,
      "stateMutability": "view",
      "type": "function"
    },
    {
      "constant": true,
      "inputs": [],
      "name": "presaleAddress",
      "outputs": [
        {
          "name": "",
          "type": "address"
        }
      ],
      "payable": false,
      "stateMutability": "view",
      "type": "function"
    },
    {
      "constant": true,
      "inputs": [],
      "name": "privatesaleSupply",
      "outputs": [
        {
          "name": "",
          "type": "uint256"
        }
      ],
      "payable": false,
      "stateMutability": "view",
      "type": "function"
    },
    {
      "constant": true,
      "inputs": [],
      "name": "tokenSaleAddress",
      "outputs": [
        {
          "name": "",
          "type": "address"
        }
      ],
      "payable": false,
      "stateMutability": "view",
      "type": "function"
    },
    {
      "constant": true,
      "inputs": [],
      "name": "teamSupply",
      "outputs": [
        {
          "name": "",
          "type": "uint256"
        }
      ],
      "payable": false,
      "stateMutability": "view",
      "type": "function"
    },
    {
      "constant": true,
      "inputs": [],
      "name": "decimals",
      "outputs": [
        {
          "name": "",
          "type": "uint8"
        }
      ],
      "payable": false,
      "stateMutability": "view",
      "type": "function"
    },
    {
      "constant": true,
      "inputs": [],
      "name": "crowdsaleAddress",
      "outputs": [
        {
          "name": "",
          "type": "address"
        }
      ],
      "payable": false,
      "stateMutability": "view",
      "type": "function"
    },
    {
      "constant": true,
      "inputs": [],
      "name": "totalSupply_",
      "outputs": [
        {
          "name": "",
          "type": "uint256"
        }
      ],
      "payable": false,
      "stateMutability": "view",
      "type": "function"
    },
    {
      "constant": true,
      "inputs": [],
      "name": "secondVestAmount",
      "outputs": [
        {
          "name": "",
          "type": "uint256"
        }
      ],
      "payable": false,
      "stateMutability": "view",
      "type": "function"
    },
    {
      "constant": true,
      "inputs": [],
      "name": "teamSupplyAddress",
      "outputs": [
        {
          "name": "",
          "type": "address"
        }
      ],
      "payable": false,
      "stateMutability": "view",
      "type": "function"
    },
    {
      "constant": true,
      "inputs": [],
      "name": "crowdsaleFinalized",
      "outputs": [
        {
          "name": "",
          "type": "bool"
        }
      ],
      "payable": false,
      "stateMutability": "view",
      "type": "function"
    },
    {
      "constant": true,
      "inputs": [],
      "name": "privatesaleFinalized",
      "outputs": [
        {
          "name": "",
          "type": "bool"
        }
      ],
      "payable": false,
      "stateMutability": "view",
      "type": "function"
    },
    {
      "constant": true,
      "inputs": [],
      "name": "presaleFinalized",
      "outputs": [
        {
          "name": "",
          "type": "bool"
        }
      ],
      "payable": false,
      "stateMutability": "view",
      "type": "function"
    },
    {
      "constant": true,
      "inputs": [],
      "name": "ecoSupplyAddress",
      "outputs": [
        {
          "name": "",
          "type": "address"
        }
      ],
      "payable": false,
      "stateMutability": "view",
      "type": "function"
    },
    {
      "constant": true,
      "inputs": [],
      "name": "owner",
      "outputs": [
        {
          "name": "",
          "type": "address"
        }
      ],
      "payable": false,
      "stateMutability": "view",
      "type": "function"
    },
    {
      "constant": true,
      "inputs": [],
      "name": "symbol",
      "outputs": [
        {
          "name": "",
          "type": "string"
        }
      ],
      "payable": false,
      "stateMutability": "view",
      "type": "function"
    },
    {
      "constant": true,
      "inputs": [],
      "name": "crowdsaleBurnAmount",
      "outputs": [
        {
          "name": "",
          "type": "uint256"
        }
      ],
      "payable": false,
      "stateMutability": "view",
      "type": "function"
    },
    {
      "constant": true,
      "inputs": [],
      "name": "privatesaleAddress",
      "outputs": [
        {
          "name": "",
          "type": "address"
        }
      ],
      "payable": false,
      "stateMutability": "view",
      "type": "function"
    },
    {
      "constant": true,
      "inputs": [],
      "name": "crowdsaleBurnAddress",
      "outputs": [
        {
          "name": "",
          "type": "address"
        }
      ],
      "payable": false,
      "stateMutability": "view",
      "type": "function"
    },
    {
      "constant": true,
      "inputs": [],
      "name": "presaleSupply",
      "outputs": [
        {
          "name": "",
          "type": "uint256"
        }
      ],
      "payable": false,
      "stateMutability": "view",
      "type": "function"
    },
    {
      "constant": true,
      "inputs": [],
      "name": "crowdsaleAirdropAddress",
      "outputs": [
        {
          "name": "",
          "type": "address"
        }
      ],
      "payable": false,
      "stateMutability": "view",
      "type": "function"
    },
    {
      "constant": true,
      "inputs": [],
      "name": "ecoSupply",
      "outputs": [
        {
          "name": "",
          "type": "uint256"
        }
      ],
      "payable": false,
      "stateMutability": "view",
      "type": "function"
    },
    {
      "constant": true,
      "inputs": [],
      "name": "firstVestStartsAt",
      "outputs": [
        {
          "name": "",
          "type": "uint256"
        }
      ],
      "payable": false,
      "stateMutability": "view",
      "type": "function"
    },
    {
      "constant": true,
      "inputs": [],
      "name": "crowdsaleSupply",
      "outputs": [
        {
          "name": "",
          "type": "uint256"
        }
      ],
      "payable": false,
      "stateMutability": "view",
      "type": "function"
    },
    {
      "constant": true,
      "inputs": [],
      "name": "firstVestAmount",
      "outputs": [
        {
          "name": "",
          "type": "uint256"
        }
      ],
      "payable": false,
      "stateMutability": "view",
      "type": "function"
    },
    {
      "constant": true,
      "inputs": [],
      "name": "secondVestStartsAt",
      "outputs": [
        {
          "name": "",
          "type": "uint256"
        }
      ],
      "payable": false,
      "stateMutability": "view",
      "type": "function"
    },
    {
      "constant": false,
      "inputs": [
        {
          "name": "newOwner",
          "type": "address"
        }
      ],
      "name": "transferOwnership",
      "outputs": [],
      "payable": false,
      "stateMutability": "nonpayable",
      "type": "function"
    },
    {
      "constant": true,
      "inputs": [],
      "name": "airdropSupply",
      "outputs": [
        {
          "name": "",
          "type": "uint256"
        }
      ],
      "payable": false,
      "stateMutability": "view",
      "type": "function"
    },
    {
      "inputs": [],
      "payable": false,
      "stateMutability": "nonpayable",
      "type": "constructor"
    },
    {
      "anonymous": false,
      "inputs": [
        {
          "indexed": false,
          "name": "tokensRemaining",
          "type": "uint256"
        }
      ],
      "name": "PrivatesaleFinalized",
      "type": "event"
    },
    {
      "anonymous": false,
      "inputs": [
        {
          "indexed": false,
          "name": "tokensRemaining",
          "type": "uint256"
        }
      ],
      "name": "PresaleFinalized",
      "type": "event"
    },
    {
      "anonymous": false,
      "inputs": [
        {
          "indexed": false,
          "name": "tokensRemaining",
          "type": "uint256"
        }
      ],
      "name": "CrowdsaleFinalized",
      "type": "event"
    },
    {
      "anonymous": false,
      "inputs": [
        {
          "indexed": true,
          "name": "burner",
          "type": "address"
        },
        {
          "indexed": false,
          "name": "value",
          "type": "uint256"
        }
      ],
      "name": "Burn",
      "type": "event"
    },
    {
      "anonymous": false,
      "inputs": [
        {
          "indexed": true,
          "name": "previousOwner",
          "type": "address"
        },
        {
          "indexed": true,
          "name": "newOwner",
          "type": "address"
        }
      ],
      "name": "OwnershipTransferred",
      "type": "event"
    },
    {
      "anonymous": false,
      "inputs": [
        {
          "indexed": true,
          "name": "owner",
          "type": "address"
        },
        {
          "indexed": true,
          "name": "spender",
          "type": "address"
        },
        {
          "indexed": false,
          "name": "value",
          "type": "uint256"
        }
      ],
      "name": "Approval",
      "type": "event"
    },
    {
      "anonymous": false,
      "inputs": [
        {
          "indexed": true,
          "name": "from",
          "type": "address"
        },
        {
          "indexed": true,
          "name": "to",
          "type": "address"
        },
        {
          "indexed": false,
          "name": "value",
          "type": "uint256"
        }
      ],
      "name": "Transfer",
      "type": "event"
    },
    {
      "constant": false,
      "inputs": [
        {
          "name": "_to",
          "type": "address"
        },
        {
          "name": "_amount",
          "type": "uint256"
        }
      ],
      "name": "transfer",
      "outputs": [
        {
          "name": "success",
          "type": "bool"
        }
      ],
      "payable": false,
      "stateMutability": "nonpayable",
      "type": "function"
    },
    {
      "constant": false,
      "inputs": [
        {
          "name": "_from",
          "type": "address"
        },
        {
          "name": "_to",
          "type": "address"
        },
        {
          "name": "_amount",
          "type": "uint256"
        }
      ],
      "name": "transferFrom",
      "outputs": [
        {
          "name": "success",
          "type": "bool"
        }
      ],
      "payable": false,
      "stateMutability": "nonpayable",
      "type": "function"
    },
    {
      "constant": false,
      "inputs": [
        {
          "name": "_to",
          "type": "address"
        },
        {
          "name": "_from",
          "type": "address"
        },
        {
          "name": "_amount",
          "type": "uint256"
        }
      ],
      "name": "transferFromTokenSell",
      "outputs": [
        {
          "name": "success",
          "type": "bool"
        }
      ],
      "payable": false,
      "stateMutability": "nonpayable",
      "type": "function"
    },
    {
      "constant": false,
      "inputs": [
        {
          "name": "_spender",
          "type": "address"
        },
        {
          "name": "_value",
          "type": "uint256"
        }
      ],
      "name": "approve",
      "outputs": [
        {
          "name": "success",
          "type": "bool"
        }
      ],
      "payable": false,
      "stateMutability": "nonpayable",
      "type": "function"
    },
    {
      "constant": true,
      "inputs": [
        {
          "name": "_owner",
          "type": "address"
        },
        {
          "name": "_spender",
          "type": "address"
        }
      ],
      "name": "allowance",
      "outputs": [
        {
          "name": "remaining",
          "type": "uint256"
        }
      ],
      "payable": false,
      "stateMutability": "view",
      "type": "function"
    },
    {
      "constant": true,
      "inputs": [
        {
          "name": "_owner",
          "type": "address"
        }
      ],
      "name": "balanceOf",
      "outputs": [
        {
          "name": "balance",
          "type": "uint256"
        }
      ],
      "payable": false,
      "stateMutability": "view",
      "type": "function"
    },
    {
      "constant": true,
      "inputs": [],
      "name": "totalSupply",
      "outputs": [
        {
          "name": "totalSupply",
          "type": "uint256"
        }
      ],
      "payable": false,
      "stateMutability": "view",
      "type": "function"
    },
    {
      "constant": false,
      "inputs": [
        {
          "name": "_tokenSaleAddress",
          "type": "address"
        }
      ],
      "name": "settokenSaleAddress",
      "outputs": [],
      "payable": false,
      "stateMutability": "nonpayable",
      "type": "function"
    },
    {
      "constant": false,
      "inputs": [],
      "name": "finalizePrivatesale",
      "outputs": [
        {
          "name": "success",
          "type": "bool"
        }
      ],
      "payable": false,
      "stateMutability": "nonpayable",
      "type": "function"
    },
    {
      "constant": false,
      "inputs": [],
      "name": "finalizePresale",
      "outputs": [
        {
          "name": "success",
          "type": "bool"
        }
      ],
      "payable": false,
      "stateMutability": "nonpayable",
      "type": "function"
    },
    {
      "constant": false,
      "inputs": [
        {
          "name": "_burnAmount",
          "type": "uint256"
        },
        {
          "name": "_ecoAmount",
          "type": "uint256"
        },
        {
          "name": "_airdropAmount",
          "type": "uint256"
        }
      ],
      "name": "finalizeCrowdsale",
      "outputs": [],
      "payable": false,
      "stateMutability": "nonpayable",
      "type": "function"
    },
    {
      "constant": false,
      "inputs": [
        {
          "name": "_value",
          "type": "uint256"
        }
      ],
      "name": "burn",
      "outputs": [],
      "payable": false,
      "stateMutability": "nonpayable",
      "type": "function"
    },
    {
      "constant": false,
      "inputs": [
        {
          "name": "_amount",
          "type": "uint256"
        }
      ],
      "name": "transferFromVest",
      "outputs": [],
      "payable": false,
      "stateMutability": "nonpayable",
      "type": "function"
    }
  ],
  "bytecode": "0x60606040526012600060146101000a81548160ff021916908360ff16021790555034156200002c57600080fd5b336000806101000a81548173ffffffffffffffffffffffffffffffffffffffff021916908373ffffffffffffffffffffffffffffffffffffffff160217905550600060149054906101000a900460ff1660ff16600a0a6323c3460002600381905550600060149054906101000a900460ff1660ff16600a0a63055d4a8002600681905550600060149054906101000a900460ff1660ff16600a0a6307270e0002600481905550600060149054906101000a900460ff1660ff16600a0a630aba950002600581905550600060149054906101000a900460ff1660ff16600a0a63055d4a8002600981905550600060149054906101000a900460ff1660ff16600a0a6307270e00026008819055506200015e6002600854620005306401000000000262002271179091906401000000009004565b600c81905550600c54600d81905550736876b854bc0e2c59dc448949d1caa5bf5bb08f54600f60006101000a81548173ffffffffffffffffffffffffffffffffffffffff021916908373ffffffffffffffffffffffffffffffffffffffff16021790555073cab76a29d35cc2f6b481112157675486180a560b601060006101000a81548173ffffffffffffffffffffffffffffffffffffffff021916908373ffffffffffffffffffffffffffffffffffffffff16021790555073b6d40fb512e7c824c6a33861b233ee50c263a950601160006101000a81548173ffffffffffffffffffffffffffffffffffffffff021916908373ffffffffffffffffffffffffffffffffffffffff160217905550734b1ccc3023c973a62984c865404f662e968c1fc1601260006101000a81548173ffffffffffffffffffffffffffffffffffffffff021916908373ffffffffffffffffffffffffffffffffffffffff16021790555073b718c3f9d9947993ba752622a15dc6bbca1d977d601360006101000a81548173ffffffffffffffffffffffffffffffffffffffff021916908373ffffffffffffffffffffffffffffffffffffffff160217905550735bcfcbde79895d3d6a115baf5386ae5463df2aaf601460006101000a81548173ffffffffffffffffffffffffffffffffffffffff021916908373ffffffffffffffffffffffffffffffffffffffff1602179055507348118545177666af8eb9a265a57558f4a2bdbd7f601560006101000a81548173ffffffffffffffffffffffffffffffffffffffff021916908373ffffffffffffffffffffffffffffffffffffffff16021790555062000404600f60009054906101000a900473ffffffffffffffffffffffffffffffffffffffff166006546200054c64010000000002620021a1176401000000009004565b62000448601060009054906101000a900473ffffffffffffffffffffffffffffffffffffffff166004546200054c64010000000002620021a1176401000000009004565b6200048c601160009054906101000a900473ffffffffffffffffffffffffffffffffffffffff166005546200054c64010000000002620021a1176401000000009004565b620004d0601260009054906101000a900473ffffffffffffffffffffffffffffffffffffffff166008546200054c64010000000002620021a1176401000000009004565b62000514601360009054906101000a900473ffffffffffffffffffffffffffffffffffffffff166009546200054c64010000000002620021a1176401000000009004565b635c01cf00600a81905550635cf1c000600b8190555062000614565b60008082848115156200053f57fe5b0490508091505092915050565b620005ae81600160008573ffffffffffffffffffffffffffffffffffffffff1673ffffffffffffffffffffffffffffffffffffffff16815260200190815260200160002054620005f56401000000000262002253179091906401000000009004565b600160008473ffffffffffffffffffffffffffffffffffffffff1673ffffffffffffffffffffffffffffffffffffffff168152602001908152602001600020819055505050565b60008082840190508381101515156200060a57fe5b8091505092915050565b6122b880620006246000396000f3006060604052600436106101f9576000357c0100000000000000000000000000000000000000000000000000000000900463ffffffff16806306fdde03146101fe578063095ea7b31461028c578063122fe685146102e657806313ff962a1461033b5780631448b3ca1461036457806318160ddd146103b957806323b872dd146103e2578063258b5c061461045b5780632cfac6ec14610490578063313ce567146104b957806331d2f891146104e8578063324536eb1461053d57806339c5a13e146105665780633c5e270f1461058f57806342966c68146105e4578063597d46011461060757806362205bd8146106345780636323b526146106615780636d498093146106da57806370a08231146107075780637348ac1f146107545780638da5cb5b146107a957806395d89b41146107fe578063a0a6e9401461088c578063a1e7e21c146108b9578063a757ac4b146108e2578063a9059cbb14610937578063aa30abf114610991578063b3866d55146109e6578063b3a196e914610a1f578063b9689cf314610a48578063c4694ec614610a9d578063caee330514610ac6578063cdcb3cdb14610aef578063d02e140a14610b18578063d15334a514610b45578063d22b1a0f14610b6e578063d8c97f3414610b97578063dd62ed3e14610bba578063f2fde38b14610c26578063fb3ed5c714610c5f575b600080fd5b341561020957600080fd5b610211610c88565b6040518080602001828103825283818151815260200191508051906020019080838360005b83811015610251578082015181840152602081019050610236565b50505050905090810190601f16801561027e5780820380516001836020036101000a031916815260200191505b509250505060405180910390f35b341561029757600080fd5b6102cc600480803573ffffffffffffffffffffffffffffffffffffffff16906020019091908035906020019091905050610cc1565b604051808215151515815260200191505060405180910390f35b34156102f157600080fd5b6102f9610dd5565b604051808273ffffffffffffffffffffffffffffffffffffffff1673ffffffffffffffffffffffffffffffffffffffff16815260200191505060405180910390f35b341561034657600080fd5b61034e610dfb565b6040518082815260200191505060405180910390f35b341561036f57600080fd5b610377610e01565b604051808273ffffffffffffffffffffffffffffffffffffffff1673ffffffffffffffffffffffffffffffffffffffff16815260200191505060405180910390f35b34156103c457600080fd5b6103cc610e27565b6040518082815260200191505060405180910390f35b34156103ed57600080fd5b610441600480803573ffffffffffffffffffffffffffffffffffffffff1690602001909190803573ffffffffffffffffffffffffffffffffffffffff16906020019091908035906020019091905050610e31565b604051808215151515815260200191505060405180910390f35b341561046657600080fd5b61048e6004808035906020019091908035906020019091908035906020019091905050611075565b005b341561049b57600080fd5b6104a36112c3565b6040518082815260200191505060405180910390f35b34156104c457600080fd5b6104cc6112c9565b604051808260ff1660ff16815260200191505060405180910390f35b34156104f357600080fd5b6104fb6112dc565b604051808273ffffffffffffffffffffffffffffffffffffffff1673ffffffffffffffffffffffffffffffffffffffff16815260200191505060405180910390f35b341561054857600080fd5b610550611302565b6040518082815260200191505060405180910390f35b341561057157600080fd5b610579611308565b6040518082815260200191505060405180910390f35b341561059a57600080fd5b6105a261130e565b604051808273ffffffffffffffffffffffffffffffffffffffff1673ffffffffffffffffffffffffffffffffffffffff16815260200191505060405180910390f35b34156105ef57600080fd5b6106056004808035906020019091905050611334565b005b341561061257600080fd5b61061a61156b565b604051808215151515815260200191505060405180910390f35b341561063f57600080fd5b61064761157d565b604051808215151515815260200191505060405180910390f35b341561066c57600080fd5b6106c0600480803573ffffffffffffffffffffffffffffffffffffffff1690602001909190803573ffffffffffffffffffffffffffffffffffffffff16906020019091908035906020019091905050611590565b604051808215151515815260200191505060405180910390f35b34156106e557600080fd5b6106ed6116be565b604051808215151515815260200191505060405180910390f35b341561071257600080fd5b61073e600480803573ffffffffffffffffffffffffffffffffffffffff169060200190919050506116d1565b6040518082815260200191505060405180910390f35b341561075f57600080fd5b61076761171a565b604051808273ffffffffffffffffffffffffffffffffffffffff1673ffffffffffffffffffffffffffffffffffffffff16815260200191505060405180910390f35b34156107b457600080fd5b6107bc611740565b604051808273ffffffffffffffffffffffffffffffffffffffff1673ffffffffffffffffffffffffffffffffffffffff16815260200191505060405180910390f35b341561080957600080fd5b610811611765565b6040518080602001828103825283818151815260200191508051906020019080838360005b83811015610851578082015181840152602081019050610836565b50505050905090810190601f16801561087e5780820380516001836020036101000a031916815260200191505b509250505060405180910390f35b341561089757600080fd5b61089f61179e565b604051808215151515815260200191505060405180910390f35b34156108c457600080fd5b6108cc611908565b6040518082815260200191505060405180910390f35b34156108ed57600080fd5b6108f561190e565b604051808273ffffffffffffffffffffffffffffffffffffffff1673ffffffffffffffffffffffffffffffffffffffff16815260200191505060405180910390f35b341561094257600080fd5b610977600480803573ffffffffffffffffffffffffffffffffffffffff16906020019091908035906020019091905050611934565b604051808215151515815260200191505060405180910390f35b341561099c57600080fd5b6109a4611a67565b604051808273ffffffffffffffffffffffffffffffffffffffff1673ffffffffffffffffffffffffffffffffffffffff16815260200191505060405180910390f35b34156109f157600080fd5b610a1d600480803573ffffffffffffffffffffffffffffffffffffffff16906020019091905050611a8d565b005b3415610a2a57600080fd5b610a32611b73565b6040518082815260200191505060405180910390f35b3415610a5357600080fd5b610a5b611b79565b604051808273ffffffffffffffffffffffffffffffffffffffff1673ffffffffffffffffffffffffffffffffffffffff16815260200191505060405180910390f35b3415610aa857600080fd5b610ab0611b9f565b6040518082815260200191505060405180910390f35b3415610ad157600080fd5b610ad9611ba5565b6040518082815260200191505060405180910390f35b3415610afa57600080fd5b610b02611bab565b6040518082815260200191505060405180910390f35b3415610b2357600080fd5b610b2b611bb1565b604051808215151515815260200191505060405180910390f35b3415610b5057600080fd5b610b58611d1b565b6040518082815260200191505060405180910390f35b3415610b7957600080fd5b610b81611d21565b6040518082815260200191505060405180910390f35b3415610ba257600080fd5b610bb86004808035906020019091905050611d27565b005b3415610bc557600080fd5b610c10600480803573ffffffffffffffffffffffffffffffffffffffff1690602001909190803573ffffffffffffffffffffffffffffffffffffffff16906020019091905050611f26565b6040518082815260200191505060405180910390f35b3415610c3157600080fd5b610c5d600480803573ffffffffffffffffffffffffffffffffffffffff16906020019091905050611fad565b005b3415610c6a57600080fd5b610c72612102565b6040518082815260200191505060405180910390f35b6040805190810160405280600d81526020017f5468652054697020546f6b656e0000000000000000000000000000000000000081525081565b600080821480610cda57506000610cd83385611f26565b145b1515610ce557600080fd5b81600260003373ffffffffffffffffffffffffffffffffffffffff1673ffffffffffffffffffffffffffffffffffffffff16815260200190815260200160002060008573ffffffffffffffffffffffffffffffffffffffff1673ffffffffffffffffffffffffffffffffffffffff168152602001908152602001600020819055508273ffffffffffffffffffffffffffffffffffffffff163373ffffffffffffffffffffffffffffffffffffffff167f8c5be1e5ebec7d5bd14f71427d1e84f3dd0314c0f7b2291e5b200ac8c7c3b925846040518082815260200191505060405180910390a36001905092915050565b601060009054906101000a900473ffffffffffffffffffffffffffffffffffffffff1681565b60065481565b601660009054906101000a900473ffffffffffffffffffffffffffffffffffffffff1681565b6000600354905090565b6000600115156016809054906101000a900460ff1615151480610ebf5750600015156016809054906101000a900460ff161515148015610ebe5750601360009054906101000a900473ffffffffffffffffffffffffffffffffffffffff1673ffffffffffffffffffffffffffffffffffffffff163373ffffffffffffffffffffffffffffffffffffffff16145b5b1515610eca57600080fd5b81610ed58533611f26565b10151515610ee257600080fd5b610eec8483612108565b610ef683836121a1565b610f8582600260008773ffffffffffffffffffffffffffffffffffffffff1673ffffffffffffffffffffffffffffffffffffffff16815260200190815260200160002060003373ffffffffffffffffffffffffffffffffffffffff1673ffffffffffffffffffffffffffffffffffffffff1681526020019081526020016000205461223a90919063ffffffff16565b600260008673ffffffffffffffffffffffffffffffffffffffff1673ffffffffffffffffffffffffffffffffffffffff16815260200190815260200160002060003373ffffffffffffffffffffffffffffffffffffffff1673ffffffffffffffffffffffffffffffffffffffff168152602001908152602001600020819055508273ffffffffffffffffffffffffffffffffffffffff168473ffffffffffffffffffffffffffffffffffffffff167fddf252ad1be2c89b69c2b068fc378daa952ba7f163c4a11628f55a4df523b3ef846040518082815260200191505060405180910390a3600190509392505050565b60008060009054906101000a900473ffffffffffffffffffffffffffffffffffffffff1673ffffffffffffffffffffffffffffffffffffffff163373ffffffffffffffffffffffffffffffffffffffff161415156110d257600080fd5b60011515601660159054906101000a900460ff1615151480156111075750600015156016809054906101000a900460ff161515145b151561111257600080fd5b60055461113a8361112c868861225390919063ffffffff16565b61225390919063ffffffff16565b14151561114657600080fd5b611171601160009054906101000a900473ffffffffffffffffffffffffffffffffffffffff166116d1565b9050600081111561126c5783600e819055506111af601360009054906101000a900473ffffffffffffffffffffffffffffffffffffffff16846121a1565b6111dd601560009054906101000a900473ffffffffffffffffffffffffffffffffffffffff16600e546121a1565b611209601460009054906101000a900473ffffffffffffffffffffffffffffffffffffffff16836121a1565b611235601160009054906101000a900473ffffffffffffffffffffffffffffffffffffffff1682612108565b6000611262601160009054906101000a900473ffffffffffffffffffffffffffffffffffffffff166116d1565b14151561126b57fe5b5b60016016806101000a81548160ff0219169083151502179055507ffdce249bb5494d2b556b2a29c2058ed83479e6c487605b5f9726b8f82a27e6cb816040518082815260200191505060405180910390a150505050565b60085481565b600060149054906101000a900460ff1681565b601160009054906101000a900473ffffffffffffffffffffffffffffffffffffffff1681565b60035481565b600d5481565b601260009054906101000a900473ffffffffffffffffffffffffffffffffffffffff1681565b60008060009054906101000a900473ffffffffffffffffffffffffffffffffffffffff1673ffffffffffffffffffffffffffffffffffffffff163373ffffffffffffffffffffffffffffffffffffffff1614151561139157600080fd5b600160003373ffffffffffffffffffffffffffffffffffffffff1673ffffffffffffffffffffffffffffffffffffffff1681526020019081526020016000205482111515156113df57600080fd5b600115156016809054906101000a900460ff16151514151561140057600080fd5b33905061145582600160008473ffffffffffffffffffffffffffffffffffffffff1673ffffffffffffffffffffffffffffffffffffffff1681526020019081526020016000205461223a90919063ffffffff16565b600160008373ffffffffffffffffffffffffffffffffffffffff1673ffffffffffffffffffffffffffffffffffffffff168152602001908152602001600020819055506114ad8260035461223a90919063ffffffff16565b6003819055508073ffffffffffffffffffffffffffffffffffffffff167fcc16f5dbb4873280815c1ee09dbd06736cffcc184412cf7a71a0fdb75d397ca5836040518082815260200191505060405180910390a2600073ffffffffffffffffffffffffffffffffffffffff168173ffffffffffffffffffffffffffffffffffffffff167fddf252ad1be2c89b69c2b068fc378daa952ba7f163c4a11628f55a4df523b3ef846040518082815260200191505060405180910390a35050565b6016809054906101000a900460ff1681565b601660149054906101000a900460ff1681565b6000601660009054906101000a900473ffffffffffffffffffffffffffffffffffffffff1673ffffffffffffffffffffffffffffffffffffffff163373ffffffffffffffffffffffffffffffffffffffff161415156115ee57600080fd5b6000821115156115fd57600080fd5b60008473ffffffffffffffffffffffffffffffffffffffff161415151561162357600080fd5b8161162d846116d1565b1015151561163a57600080fd5b6116448383612108565b61164e84836121a1565b8373ffffffffffffffffffffffffffffffffffffffff168373ffffffffffffffffffffffffffffffffffffffff167fddf252ad1be2c89b69c2b068fc378daa952ba7f163c4a11628f55a4df523b3ef846040518082815260200191505060405180910390a3600190509392505050565b601660159054906101000a900460ff1681565b6000600160008373ffffffffffffffffffffffffffffffffffffffff1673ffffffffffffffffffffffffffffffffffffffff168152602001908152602001600020549050919050565b601360009054906101000a900473ffffffffffffffffffffffffffffffffffffffff1681565b6000809054906101000a900473ffffffffffffffffffffffffffffffffffffffff1681565b6040805190810160405280600381526020017f545454000000000000000000000000000000000000000000000000000000000081525081565b6000806000809054906101000a900473ffffffffffffffffffffffffffffffffffffffff1673ffffffffffffffffffffffffffffffffffffffff163373ffffffffffffffffffffffffffffffffffffffff161415156117fc57600080fd5b60001515601660159054906101000a900460ff16151514151561181e57600080fd5b611849601060009054906101000a900473ffffffffffffffffffffffffffffffffffffffff166116d1565b90506000811415156118ae57611881601160009054906101000a900473ffffffffffffffffffffffffffffffffffffffff16826121a1565b6118ad601060009054906101000a900473ffffffffffffffffffffffffffffffffffffffff1682612108565b5b6001601660156101000a81548160ff0219169083151502179055507fba77ddc9e26933f19061480be65d8ea3dcf88fb70efd476df9515333cabee8c4816040518082815260200191505060405180910390a1600191505090565b600e5481565b600f60009054906101000a900473ffffffffffffffffffffffffffffffffffffffff1681565b6000600115156016809054906101000a900460ff16151514806119c25750600015156016809054906101000a900460ff1615151480156119c15750601360009054906101000a900473ffffffffffffffffffffffffffffffffffffffff1673ffffffffffffffffffffffffffffffffffffffff163373ffffffffffffffffffffffffffffffffffffffff16145b5b15156119cd57600080fd5b816119d7336116d1565b101515156119e457600080fd5b6119ee83836121a1565b6119f83383612108565b8273ffffffffffffffffffffffffffffffffffffffff163373ffffffffffffffffffffffffffffffffffffffff167fddf252ad1be2c89b69c2b068fc378daa952ba7f163c4a11628f55a4df523b3ef846040518082815260200191505060405180910390a36001905092915050565b601560009054906101000a900473ffffffffffffffffffffffffffffffffffffffff1681565b6000809054906101000a900473ffffffffffffffffffffffffffffffffffffffff1673ffffffffffffffffffffffffffffffffffffffff163373ffffffffffffffffffffffffffffffffffffffff16141515611ae857600080fd5b6000601660009054906101000a900473ffffffffffffffffffffffffffffffffffffffff1673ffffffffffffffffffffffffffffffffffffffff16141515611b2f57600080fd5b80601660006101000a81548173ffffffffffffffffffffffffffffffffffffffff021916908373ffffffffffffffffffffffffffffffffffffffff16021790555050565b60045481565b601460009054906101000a900473ffffffffffffffffffffffffffffffffffffffff1681565b60095481565b600a5481565b60055481565b6000806000809054906101000a900473ffffffffffffffffffffffffffffffffffffffff1673ffffffffffffffffffffffffffffffffffffffff163373ffffffffffffffffffffffffffffffffffffffff16141515611c0f57600080fd5b60001515601660149054906101000a900460ff161515141515611c3157600080fd5b611c5c600f60009054906101000a900473ffffffffffffffffffffffffffffffffffffffff166116d1565b9050600081141515611cc157611c94601060009054906101000a900473ffffffffffffffffffffffffffffffffffffffff16826121a1565b611cc0600f60009054906101000a900473ffffffffffffffffffffffffffffffffffffffff1682612108565b5b6001601660146101000a81548160ff0219169083151502179055507f3b80683c9980176c21081652987df44d5f29314308fac7e98404e8db4155b710816040518082815260200191505060405180910390a1600191505090565b600c5481565b600b5481565b6000809054906101000a900473ffffffffffffffffffffffffffffffffffffffff1673ffffffffffffffffffffffffffffffffffffffff163373ffffffffffffffffffffffffffffffffffffffff16141515611d8257600080fd5b600a5442111515611d9257600080fd5b600081111515611da157600080fd5b600115156016809054906101000a900460ff161515141515611dc257600080fd5b600b54421115611e1b576008548111151515611ddd57600080fd5b611e08601260009054906101000a900473ffffffffffffffffffffffffffffffffffffffff166116d1565b8111151515611e1657600080fd5b611e66565b600c548111151515611e2c57600080fd5b611e57601260009054906101000a900473ffffffffffffffffffffffffffffffffffffffff166116d1565b8111151515611e6557600080fd5b5b611e7033826121a1565b611e9c601260009054906101000a900473ffffffffffffffffffffffffffffffffffffffff1682612108565b3373ffffffffffffffffffffffffffffffffffffffff16601260009054906101000a900473ffffffffffffffffffffffffffffffffffffffff1673ffffffffffffffffffffffffffffffffffffffff167fddf252ad1be2c89b69c2b068fc378daa952ba7f163c4a11628f55a4df523b3ef836040518082815260200191505060405180910390a350565b6000600260008473ffffffffffffffffffffffffffffffffffffffff1673ffffffffffffffffffffffffffffffffffffffff16815260200190815260200160002060008373ffffffffffffffffffffffffffffffffffffffff1673ffffffffffffffffffffffffffffffffffffffff16815260200190815260200160002054905092915050565b6000809054906101000a900473ffffffffffffffffffffffffffffffffffffffff1673ffffffffffffffffffffffffffffffffffffffff163373ffffffffffffffffffffffffffffffffffffffff1614151561200857600080fd5b600073ffffffffffffffffffffffffffffffffffffffff168173ffffffffffffffffffffffffffffffffffffffff161415151561204457600080fd5b8073ffffffffffffffffffffffffffffffffffffffff166000809054906101000a900473ffffffffffffffffffffffffffffffffffffffff1673ffffffffffffffffffffffffffffffffffffffff167f8be0079c531659141344cd1fd0a4f28419497f9722a3daafe3b4186f6b6457e060405160405180910390a3806000806101000a81548173ffffffffffffffffffffffffffffffffffffffff021916908373ffffffffffffffffffffffffffffffffffffffff16021790555050565b60075481565b61215a81600160008573ffffffffffffffffffffffffffffffffffffffff1673ffffffffffffffffffffffffffffffffffffffff1681526020019081526020016000205461223a90919063ffffffff16565b600160008473ffffffffffffffffffffffffffffffffffffffff1673ffffffffffffffffffffffffffffffffffffffff168152602001908152602001600020819055505050565b6121f381600160008573ffffffffffffffffffffffffffffffffffffffff1673ffffffffffffffffffffffffffffffffffffffff1681526020019081526020016000205461225390919063ffffffff16565b600160008473ffffffffffffffffffffffffffffffffffffffff1673ffffffffffffffffffffffffffffffffffffffff168152602001908152602001600020819055505050565b600082821115151561224857fe5b818303905092915050565b600080828401905083811015151561226757fe5b8091505092915050565b600080828481151561227f57fe5b04905080915050929150505600a165627a7a7230582077248e765b56f1b1226ec363db65759ec20661a902e83f9242de0ab77073b6cb0029",
  "source": "pragma solidity ^0.4.18;\n\nimport \"zeppelin-solidity/contracts/math/SafeMath.sol\";\nimport \"zeppelin-solidity/contracts/ownership/Ownable.sol\";\nimport \"zeppelin-solidity/contracts/token/ERC20/ERC20.sol\";\n\n\ncontract TTTToken is ERC20, Ownable {\n\tusing SafeMath for uint;\n\n\tstring public constant name = \"The Tip Token\";\n\tstring public constant symbol = \"TTT\";\n\n\tuint8 public decimals = 18;\n\n\tmapping(address=>uint256) balances;\n\tmapping(address=>mapping(address=>uint256)) allowed;\n\n\t// Supply variables\n\tuint256 public totalSupply_;\n\tuint256 public presaleSupply;\n\tuint256 public crowdsaleSupply;\n\tuint256 public privatesaleSupply;\n\tuint256 public airdropSupply;\n\tuint256 public teamSupply;\n\tuint256 public ecoSupply;\n\n\t// Vest variables\n\tuint256 public firstVestStartsAt;\n\tuint256 public secondVestStartsAt;\n\tuint256 public firstVestAmount;\n\tuint256 public secondVestAmount;\n\n\tuint256 public crowdsaleBurnAmount;\n\n\t// Token sale addresses\n\taddress public privatesaleAddress;\n\taddress public presaleAddress;\n\taddress public crowdsaleAddress;\n\taddress public teamSupplyAddress;\n\taddress public ecoSupplyAddress;\n\taddress public crowdsaleAirdropAddress;\n\taddress public crowdsaleBurnAddress;\n\taddress public tokenSaleAddress;\n\n\t// Token sale state variables\n\tbool public privatesaleFinalized;\n\tbool public presaleFinalized;\n\tbool public crowdsaleFinalized;\n\n\tevent PrivatesaleFinalized(uint tokensRemaining);\n\tevent PresaleFinalized(uint tokensRemaining);\n\tevent CrowdsaleFinalized(uint tokensRemaining);\n\tevent Burn(address indexed burner, uint256 value);\n\n\tmodifier onlyTokenSale() {\n\t\trequire(msg.sender == tokenSaleAddress);\n\t\t_;\n\t}\n\n\tmodifier canItoSend() {\n\t\trequire(crowdsaleFinalized == true || (crowdsaleFinalized == false && msg.sender == ecoSupplyAddress));\n\t\t_;\n\t}\n\n\tfunction TTTToken() {\n\t\t// 600 million total supply divided into\n\t\t//\t\t90 million to privatesale address\n\t\t//\t\t120 million to presale address\n\t\t//\t\t180 million to crowdsale address\n\t\t//\t\t90 million to eco supply address\n\t\t//\t\t120 million to team supply address\n\t\ttotalSupply_ = 600000000 * 10**uint(decimals);\n\t\tprivatesaleSupply = 90000000 * 10**uint(decimals);\n\t\tpresaleSupply = 120000000 * 10**uint(decimals);\n\t\tcrowdsaleSupply = 180000000 * 10**uint(decimals);\n\t\tecoSupply = 90000000 * 10**uint(decimals);\n\t\tteamSupply = 120000000 * 10**uint(decimals);\n\n\t\tfirstVestAmount = teamSupply.div(2);\n\t\tsecondVestAmount = firstVestAmount;\n\n\t\tprivatesaleAddress = 0x6876b854Bc0E2c59dc448949d1Caa5BF5bb08F54;\n\t\tpresaleAddress = 0xcab76A29D35cc2f6B481112157675486180A560B;\n\t\tcrowdsaleAddress = 0xb6d40Fb512e7c824c6a33861b233eE50c263A950;\n\t\tteamSupplyAddress = 0x4b1CCC3023C973A62984C865404f662e968c1FC1;\n\t\tecoSupplyAddress = 0xb718C3f9D9947993BA752622a15dc6BBCA1d977d;\n\t\tcrowdsaleAirdropAddress = 0x5BcFCbdE79895D3D6A115Baf5386ae5463df2aAF;\n\t\tcrowdsaleBurnAddress = 0x48118545177666aF8eB9A265a57558f4A2bdbd7F;\n\n\t\taddToBalance(privatesaleAddress, privatesaleSupply);\n\t\taddToBalance(presaleAddress, presaleSupply);\n\t\taddToBalance(crowdsaleAddress, crowdsaleSupply);\n\t\taddToBalance(teamSupplyAddress, teamSupply);\n\t\taddToBalance(ecoSupplyAddress, ecoSupply);\n\n\t\t// 12/01/2018 @ 12:00am (UTC)\n\t\tfirstVestStartsAt = 1543622400;\n\t\t// 06/01/2019 @ 12:00am (UTC)\n\t\tsecondVestStartsAt = 1559347200;\n\t}\n\n\t// Transfer\n\tfunction transfer(address _to, uint256 _amount) public canItoSend returns (bool success) {\n\t\trequire(balanceOf(msg.sender) >= _amount);\n\t\taddToBalance(_to, _amount);\n\t\tdecrementBalance(msg.sender, _amount);\n\t\tTransfer(msg.sender, _to, _amount);\n\t\treturn true;\n\t}\n\n\t// Transfer from one address to another\n\tfunction transferFrom(address _from, address _to, uint256 _amount) public canItoSend returns (bool success) {\n\t\trequire(allowance(_from, msg.sender) >= _amount);\n\t\tdecrementBalance(_from, _amount);\n\t\taddToBalance(_to, _amount);\n\t\tallowed[_from][msg.sender] = allowed[_from][msg.sender].sub(_amount);\n\t\tTransfer(_from, _to, _amount);\n\t\treturn true;\n\t}\n\n\t// Function for token sell contract to call on transfers\n\tfunction transferFromTokenSell(address _to, address _from, uint256 _amount) external onlyTokenSale returns (bool success) {\n\t\trequire(_amount > 0);\n\t\trequire(_to != 0x0);\n\t\trequire(balanceOf(_from) >= _amount);\n\t\tdecrementBalance(_from, _amount);\n\t\taddToBalance(_to, _amount);\n\t\tTransfer(_from, _to, _amount);\n\t\treturn true;\n\t}\n\n\t// Approve another address a certain amount of TTT\n\tfunction approve(address _spender, uint256 _value) public returns (bool success) {\n\t\trequire((_value == 0) || (allowance(msg.sender, _spender) == 0));\n\t\tallowed[msg.sender][_spender] = _value;\n\t\tApproval(msg.sender, _spender, _value);\n\t\treturn true;\n\t}\n\n\t// Get an address's TTT allowance\n\tfunction allowance(address _owner, address _spender) public view returns (uint256 remaining) {\n\t\treturn allowed[_owner][_spender];\n\t}\n\n\t// Get TTT balance of an address\n\tfunction balanceOf(address _owner) public view returns (uint256 balance) {\n\t\treturn balances[_owner];\n\t}\n\n\t// Return total supply\n\tfunction totalSupply() public view returns (uint256 totalSupply) {\n\t\treturn totalSupply_;\n\t}\n\n\t// Set the tokenSell contract address, can only be set once\n\tfunction settokenSaleAddress(address _tokenSaleAddress) external onlyOwner {\n\t\trequire(tokenSaleAddress == 0x0);\n\t\ttokenSaleAddress = _tokenSaleAddress;\n\t}\n\n\t// Finalize private. If there are leftover TTT, overflow to presale\n\tfunction finalizePrivatesale() external onlyOwner returns (bool success) {\n\t\trequire(privatesaleFinalized == false);\n\t\tuint256 amount = balanceOf(privatesaleAddress);\n\t\tif (amount != 0) {\n\t\t\taddToBalance(presaleAddress, amount);\n\t\t\tdecrementBalance(privatesaleAddress, amount);\n\t\t}\n\t\tprivatesaleFinalized = true;\n\t\tPrivatesaleFinalized(amount);\n\t\treturn true;\n\t}\n\n\t// Finalize presale. If there are leftover TTT, overflow to crowdsale\n\tfunction finalizePresale() external onlyOwner returns (bool success) {\n\t\trequire(presaleFinalized == false);\n\t\tuint256 amount = balanceOf(presaleAddress);\n\t\tif (amount != 0) {\n\t\t\taddToBalance(crowdsaleAddress, amount);\n\t\t\tdecrementBalance(presaleAddress, amount);\n\t\t}\n\t\tpresaleFinalized = true;\n\t\tPresaleFinalized(amount);\n\t\treturn true;\n\t}\n\n\t// Finalize crowdsale. If there are leftover TTT, add 10% to airdrop, 20% to ecosupply, burn 70% at a later date\n\tfunction finalizeCrowdsale(uint256 _burnAmount, uint256 _ecoAmount, uint256 _airdropAmount) external onlyOwner {\n\t\trequire(presaleFinalized == true && crowdsaleFinalized == false);\n\t\trequire((_burnAmount.add(_ecoAmount).add(_airdropAmount)) == crowdsaleSupply);\n\t\tuint256 amount = balanceOf(crowdsaleAddress);\n\t\tif (amount > 0) {\n\t\t\tcrowdsaleBurnAmount = _burnAmount;\n\t\t\taddToBalance(ecoSupplyAddress, _ecoAmount);\n\t\t\taddToBalance(crowdsaleBurnAddress, crowdsaleBurnAmount);\n\t\t\taddToBalance(crowdsaleAirdropAddress, _airdropAmount);\n\t\t\tdecrementBalance(crowdsaleAddress, amount);\n\t\t\tassert(balanceOf(crowdsaleAddress) == 0);\n\t\t}\n\t\tcrowdsaleFinalized = true;\n\t\tCrowdsaleFinalized(amount);\n\t}\n\n\t/**\n\t* @dev Burns a specific amount of tokens. * added onlyOwner, as this will only happen from owner, if there are crowdsale leftovers\n\t* @param _value The amount of token to be burned.\n\t* @dev imported from https://github.com/OpenZeppelin/zeppelin-solidity/blob/master/contracts/token/ERC20/BurnableToken.sol\n\t*/\n\tfunction burn(uint256 _value) public onlyOwner {\n\t\trequire(_value <= balances[msg.sender]);\n\t\trequire(crowdsaleFinalized == true);\n\t\t// no need to require value <= totalSupply, since that would imply the\n\t\t// sender's balance is greater than the totalSupply, which *should* be an assertion failure\n\n\t\taddress burner = msg.sender;\n\t\tbalances[burner] = balances[burner].sub(_value);\n\t\ttotalSupply_ = totalSupply_.sub(_value);\n\t\tBurn(burner, _value);\n\t\tTransfer(burner, address(0), _value);\n\t}\n\n\t// Transfer tokens from the vested address. 50% available 12/01/2018, the rest available 06/01/2019\n\tfunction transferFromVest(uint256 _amount) public onlyOwner {\n\t\trequire(block.timestamp > firstVestStartsAt);\n\t\trequire(_amount > 0);\n\t\trequire(crowdsaleFinalized == true);\n\t\tif(block.timestamp > secondVestStartsAt) {\n\t\t\t// all tokens available for vest withdrawl\n\t\t\trequire(_amount <= teamSupply);\n\t\t\trequire(_amount <= balanceOf(teamSupplyAddress));\n\t\t} else {\n\t\t\t// only first vest available\n\t\t\trequire(_amount <= firstVestAmount);\n\t\t\trequire(_amount <= balanceOf(teamSupplyAddress));\n\t\t}\n\t\taddToBalance(msg.sender, _amount);\n\t\tdecrementBalance(teamSupplyAddress, _amount);\n\t\tTransfer(teamSupplyAddress, msg.sender, _amount);\n\t}\n\n\t// Add to balance\n\tfunction addToBalance(address _address, uint _amount) internal {\n\t\tbalances[_address] = balances[_address].add(_amount);\n\t}\n\n\t// Remove from balance\n\tfunction decrementBalance(address _address, uint _amount) internal {\n\t\tbalances[_address] = balances[_address].sub(_amount);\n\t}\n\n}\n",
  "sourcePath": "C:\\TTTToken\\contracts\\TTTToken.sol",
  "compiler": {
    "name": "solc",
    "version": "0.4.19+commit.c4cbbb05.Emscripten.clang"
  },
  "schemaVersion": "2.0.0",
  "updatedAt": "2018-04-04T22:44:42.305Z"
}