{
  "contractName": "TTTTokenSell",
  "abi": [
    {
      "constant": true,
      "inputs": [],
      "name": "endsAt",
      "outputs": [
        {
          "name": "",
          "type": "uint256"
        }
      ],
      "payable": false,
      "stateMutability": "view",
      "type": "function"
    },
    {
      "constant": true,
      "inputs": [],
      "name": "presaleAddress",
      "outputs": [
        {
          "name": "",
          "type": "address"
        }
      ],
      "payable": false,
      "stateMutability": "view",
      "type": "function"
    },
    {
      "constant": false,
      "inputs": [
        {
          "name": "addrs",
          "type": "address[]"
        }
      ],
      "name": "removeAddressesFromWhitelist",
      "outputs": [
        {
          "name": "success",
          "type": "bool"
        }
      ],
      "payable": false,
      "stateMutability": "nonpayable",
      "type": "function"
    },
    {
      "constant": false,
      "inputs": [
        {
          "name": "addr",
          "type": "address"
        }
      ],
      "name": "removeAddressFromWhitelist",
      "outputs": [
        {
          "name": "success",
          "type": "bool"
        }
      ],
      "payable": false,
      "stateMutability": "nonpayable",
      "type": "function"
    },
    {
      "constant": true,
      "inputs": [],
      "name": "crowdsaleAddress",
      "outputs": [
        {
          "name": "",
          "type": "address"
        }
      ],
      "payable": false,
      "stateMutability": "view",
      "type": "function"
    },
    {
      "constant": false,
      "inputs": [],
      "name": "unpause",
      "outputs": [],
      "payable": false,
      "stateMutability": "nonpayable",
      "type": "function"
    },
    {
      "constant": true,
      "inputs": [],
      "name": "weiRaised",
      "outputs": [
        {
          "name": "",
          "type": "uint256"
        }
      ],
      "payable": false,
      "stateMutability": "view",
      "type": "function"
    },
    {
      "constant": true,
      "inputs": [],
      "name": "wallet",
      "outputs": [
        {
          "name": "",
          "type": "address"
        }
      ],
      "payable": false,
      "stateMutability": "view",
      "type": "function"
    },
    {
      "constant": true,
      "inputs": [],
      "name": "paused",
      "outputs": [
        {
          "name": "",
          "type": "bool"
        }
      ],
      "payable": false,
      "stateMutability": "view",
      "type": "function"
    },
    {
      "constant": false,
      "inputs": [
        {
          "name": "addr",
          "type": "address"
        }
      ],
      "name": "addAddressToWhitelist",
      "outputs": [
        {
          "name": "success",
          "type": "bool"
        }
      ],
      "payable": false,
      "stateMutability": "nonpayable",
      "type": "function"
    },
    {
      "constant": false,
      "inputs": [],
      "name": "pause",
      "outputs": [],
      "payable": false,
      "stateMutability": "nonpayable",
      "type": "function"
    },
    {
      "constant": true,
      "inputs": [],
      "name": "owner",
      "outputs": [
        {
          "name": "",
          "type": "address"
        }
      ],
      "payable": false,
      "stateMutability": "view",
      "type": "function"
    },
    {
      "constant": true,
      "inputs": [
        {
          "name": "",
          "type": "address"
        }
      ],
      "name": "whitelist",
      "outputs": [
        {
          "name": "",
          "type": "bool"
        }
      ],
      "payable": false,
      "stateMutability": "view",
      "type": "function"
    },
    {
      "constant": true,
      "inputs": [],
      "name": "tokenAddress",
      "outputs": [
        {
          "name": "",
          "type": "address"
        }
      ],
      "payable": false,
      "stateMutability": "view",
      "type": "function"
    },
    {
      "constant": true,
      "inputs": [],
      "name": "privatesaleAddress",
      "outputs": [
        {
          "name": "",
          "type": "address"
        }
      ],
      "payable": false,
      "stateMutability": "view",
      "type": "function"
    },
    {
      "constant": true,
      "inputs": [],
      "name": "startsAt",
      "outputs": [
        {
          "name": "",
          "type": "uint256"
        }
      ],
      "payable": false,
      "stateMutability": "view",
      "type": "function"
    },
    {
      "constant": true,
      "inputs": [],
      "name": "currentPhaseRate",
      "outputs": [
        {
          "name": "",
          "type": "uint256"
        }
      ],
      "payable": false,
      "stateMutability": "view",
      "type": "function"
    },
    {
      "constant": false,
      "inputs": [
        {
          "name": "addrs",
          "type": "address[]"
        }
      ],
      "name": "addAddressesToWhitelist",
      "outputs": [
        {
          "name": "success",
          "type": "bool"
        }
      ],
      "payable": false,
      "stateMutability": "nonpayable",
      "type": "function"
    },
    {
      "constant": false,
      "inputs": [
        {
          "name": "newOwner",
          "type": "address"
        }
      ],
      "name": "transferOwnership",
      "outputs": [],
      "payable": false,
      "stateMutability": "nonpayable",
      "type": "function"
    },
    {
      "constant": true,
      "inputs": [],
      "name": "token",
      "outputs": [
        {
          "name": "",
          "type": "address"
        }
      ],
      "payable": false,
      "stateMutability": "view",
      "type": "function"
    },
    {
      "inputs": [
        {
          "name": "_tokenAddress",
          "type": "address"
        }
      ],
      "payable": false,
      "stateMutability": "nonpayable",
      "type": "constructor"
    },
    {
      "payable": true,
      "stateMutability": "payable",
      "type": "fallback"
    },
    {
      "anonymous": false,
      "inputs": [
        {
          "indexed": false,
          "name": "beneficiary",
          "type": "address"
        },
        {
          "indexed": false,
          "name": "amountRaised",
          "type": "uint256"
        }
      ],
      "name": "AmountRaised",
      "type": "event"
    },
    {
      "anonymous": false,
      "inputs": [
        {
          "indexed": true,
          "name": "purchaser",
          "type": "address"
        },
        {
          "indexed": false,
          "name": "value",
          "type": "uint256"
        },
        {
          "indexed": false,
          "name": "amount",
          "type": "uint256"
        }
      ],
      "name": "TokenPurchased",
      "type": "event"
    },
    {
      "anonymous": false,
      "inputs": [
        {
          "indexed": false,
          "name": "phase",
          "type": "uint8"
        },
        {
          "indexed": false,
          "name": "startsAt",
          "type": "uint256"
        },
        {
          "indexed": false,
          "name": "endsAt",
          "type": "uint256"
        }
      ],
      "name": "TokenPhaseStarted",
      "type": "event"
    },
    {
      "anonymous": false,
      "inputs": [
        {
          "indexed": false,
          "name": "phase",
          "type": "uint8"
        }
      ],
      "name": "TokenPhaseEnded",
      "type": "event"
    },
    {
      "anonymous": false,
      "inputs": [],
      "name": "Pause",
      "type": "event"
    },
    {
      "anonymous": false,
      "inputs": [],
      "name": "Unpause",
      "type": "event"
    },
    {
      "anonymous": false,
      "inputs": [
        {
          "indexed": false,
          "name": "addr",
          "type": "address"
        }
      ],
      "name": "WhitelistedAddressAdded",
      "type": "event"
    },
    {
      "anonymous": false,
      "inputs": [
        {
          "indexed": false,
          "name": "addr",
          "type": "address"
        }
      ],
      "name": "WhitelistedAddressRemoved",
      "type": "event"
    },
    {
      "anonymous": false,
      "inputs": [
        {
          "indexed": true,
          "name": "previousOwner",
          "type": "address"
        },
        {
          "indexed": true,
          "name": "newOwner",
          "type": "address"
        }
      ],
      "name": "OwnershipTransferred",
      "type": "event"
    },
    {
      "constant": false,
      "inputs": [
        {
          "name": "_phase",
          "type": "uint256"
        },
        {
          "name": "_startsAt",
          "type": "uint256"
        },
        {
          "name": "_endsAt",
          "type": "uint256"
        }
      ],
      "name": "startPhase",
      "outputs": [],
      "payable": false,
      "stateMutability": "nonpayable",
      "type": "function"
    },
    {
      "constant": false,
      "inputs": [
        {
          "name": "_to",
          "type": "address"
        }
      ],
      "name": "buyTokens",
      "outputs": [],
      "payable": true,
      "stateMutability": "payable",
      "type": "function"
    },
    {
      "constant": false,
      "inputs": [],
      "name": "finalizePhase",
      "outputs": [],
      "payable": false,
      "stateMutability": "nonpayable",
      "type": "function"
    },
    {
      "constant": false,
      "inputs": [
        {
          "name": "_burnAmount",
          "type": "uint256"
        },
        {
          "name": "_ecoAmount",
          "type": "uint256"
        },
        {
          "name": "_airdropAmount",
          "type": "uint256"
        }
      ],
      "name": "finalizeIto",
      "outputs": [],
      "payable": false,
      "stateMutability": "nonpayable",
      "type": "function"
    }
  ],
  "bytecode": "0x60606040526000600260006101000a81548160ff021916908315150217905550341561002a57600080fd5b604051602080611c9683398101604052808051906020019091905050336000806101000a81548173ffffffffffffffffffffffffffffffffffffffff021916908373ffffffffffffffffffffffffffffffffffffffff16021790555073ea2d2c0223af6e9c83db343aef2194564b27ee87600360006101000a81548173ffffffffffffffffffffffffffffffffffffffff021916908373ffffffffffffffffffffffffffffffffffffffff160217905550736876b854bc0e2c59dc448949d1caa5bf5bb08f54600460006101000a81548173ffffffffffffffffffffffffffffffffffffffff021916908373ffffffffffffffffffffffffffffffffffffffff16021790555073cab76a29d35cc2f6b481112157675486180a560b600560006101000a81548173ffffffffffffffffffffffffffffffffffffffff021916908373ffffffffffffffffffffffffffffffffffffffff16021790555073b6d40fb512e7c824c6a33861b233ee50c263a950600660006101000a81548173ffffffffffffffffffffffffffffffffffffffff021916908373ffffffffffffffffffffffffffffffffffffffff16021790555080600260016101000a81548173ffffffffffffffffffffffffffffffffffffffff021916908373ffffffffffffffffffffffffffffffffffffffff160217905550600260019054906101000a900473ffffffffffffffffffffffffffffffffffffffff16600e60006101000a81548173ffffffffffffffffffffffffffffffffffffffff021916908373ffffffffffffffffffffffffffffffffffffffff160217905550600060088190555060006009819055506000600a819055506012600a0a61271002600b81905550506119e1806102b56000396000f30060606040526004361061013e576000357c0100000000000000000000000000000000000000000000000000000000900463ffffffff1680630a09284a14610149578063122fe685146101725780631f8c07b0146101c757806324953eaa146101fc578063286dd3f51461026e57806331d2f891146102bf5780633f4ba83a146103145780634042b66f14610329578063521eb273146103525780635536deb6146103a75780635c975abb146103bc5780637b9417c8146103e95780638456cb591461043a5780638da5cb5b1461044f5780639b19251a146104a45780639d76ea58146104f5578063a757ac4b1461054a578063af4686821461059f578063cc326e1c146105c8578063d8c3c1ed146105f1578063e2ec6ec314610626578063ec8ac4d814610698578063f2fde38b146106c6578063fc0c546a146106ff575b61014733610754565b005b341561015457600080fd5b61015c610a58565b6040518082815260200191505060405180910390f35b341561017d57600080fd5b610185610a5e565b604051808273ffffffffffffffffffffffffffffffffffffffff1673ffffffffffffffffffffffffffffffffffffffff16815260200191505060405180910390f35b34156101d257600080fd5b6101fa6004808035906020019091908035906020019091908035906020019091905050610a84565b005b341561020757600080fd5b610254600480803590602001908201803590602001908080602002602001604051908101604052809392919081815260200183836020028082843782019150505050505091905050610c34565b604051808215151515815260200191505060405180910390f35b341561027957600080fd5b6102a5600480803573ffffffffffffffffffffffffffffffffffffffff16906020019091905050610cdd565b604051808215151515815260200191505060405180910390f35b34156102ca57600080fd5b6102d2610e51565b604051808273ffffffffffffffffffffffffffffffffffffffff1673ffffffffffffffffffffffffffffffffffffffff16815260200191505060405180910390f35b341561031f57600080fd5b610327610e77565b005b341561033457600080fd5b61033c610f36565b6040518082815260200191505060405180910390f35b341561035d57600080fd5b610365610f3c565b604051808273ffffffffffffffffffffffffffffffffffffffff1673ffffffffffffffffffffffffffffffffffffffff16815260200191505060405180910390f35b34156103b257600080fd5b6103ba610f62565b005b34156103c757600080fd5b6103cf6111b7565b604051808215151515815260200191505060405180910390f35b34156103f457600080fd5b610420600480803573ffffffffffffffffffffffffffffffffffffffff169060200190919050506111ca565b604051808215151515815260200191505060405180910390f35b341561044557600080fd5b61044d61133e565b005b341561045a57600080fd5b6104626113fe565b604051808273ffffffffffffffffffffffffffffffffffffffff1673ffffffffffffffffffffffffffffffffffffffff16815260200191505060405180910390f35b34156104af57600080fd5b6104db600480803573ffffffffffffffffffffffffffffffffffffffff16906020019091905050611423565b604051808215151515815260200191505060405180910390f35b341561050057600080fd5b610508611443565b604051808273ffffffffffffffffffffffffffffffffffffffff1673ffffffffffffffffffffffffffffffffffffffff16815260200191505060405180910390f35b341561055557600080fd5b61055d611469565b604051808273ffffffffffffffffffffffffffffffffffffffff1673ffffffffffffffffffffffffffffffffffffffff16815260200191505060405180910390f35b34156105aa57600080fd5b6105b261148f565b6040518082815260200191505060405180910390f35b34156105d357600080fd5b6105db611495565b6040518082815260200191505060405180910390f35b34156105fc57600080fd5b610624600480803590602001909190803590602001909190803590602001909190505061149b565b005b341561063157600080fd5b61067e6004808035906020019082018035906020019080806020026020016040519081016040528093929190818152602001838360200280828437820191505050505050919050506115b3565b604051808215151515815260200191505060405180910390f35b6106c4600480803573ffffffffffffffffffffffffffffffffffffffff16906020019091905050610754565b005b34156106d157600080fd5b6106fd600480803573ffffffffffffffffffffffffffffffffffffffff1690602001909190505061165c565b005b341561070a57600080fd5b6107126117b1565b604051808273ffffffffffffffffffffffffffffffffffffffff1673ffffffffffffffffffffffffffffffffffffffff16815260200191505060405180910390f35b6000806000600854421015801561076d57506009544211155b151561077557fe5b600260009054906101000a900460ff1615151561079157600080fd5b600160008573ffffffffffffffffffffffffffffffffffffffff1673ffffffffffffffffffffffffffffffffffffffff16815260200190815260200160002060009054906101000a900460ff1615156107e957600080fd5b600a5434101580156107fd5750600b543411155b151561080857600080fd5b60008473ffffffffffffffffffffffffffffffffffffffff161415151561082e57600080fd5b6108366117d7565b925060008373ffffffffffffffffffffffffffffffffffffffff161415151561085b57fe5b349150600d548202905061087a826007546118e790919063ffffffff16565b600781905550600360009054906101000a900473ffffffffffffffffffffffffffffffffffffffff1673ffffffffffffffffffffffffffffffffffffffff166108fc839081150290604051600060405180830381858888f1935050505015156108e257600080fd5b600e60009054906101000a900473ffffffffffffffffffffffffffffffffffffffff1673ffffffffffffffffffffffffffffffffffffffff16636323b5268585846040518463ffffffff167c0100000000000000000000000000000000000000000000000000000000028152600401808473ffffffffffffffffffffffffffffffffffffffff1673ffffffffffffffffffffffffffffffffffffffff1681526020018373ffffffffffffffffffffffffffffffffffffffff1673ffffffffffffffffffffffffffffffffffffffff1681526020018281526020019350505050602060405180830381600087803b15156109da57600080fd5b5af115156109e757600080fd5b5050506040518051905015156109fc57600080fd5b8373ffffffffffffffffffffffffffffffffffffffff167f3ceffd410054fdaed44f598ff5c1fb450658778e2241892da4aa646979dee6178284604051808381526020018281526020019250505060405180910390a250505050565b60095481565b600560009054906101000a900473ffffffffffffffffffffffffffffffffffffffff1681565b6000809054906101000a900473ffffffffffffffffffffffffffffffffffffffff1673ffffffffffffffffffffffffffffffffffffffff163373ffffffffffffffffffffffffffffffffffffffff16141515610adf57600080fd5b60008310158015610af1575060028311155b1515610afc57600080fd5b60095482118015610b0c57508181115b1515610b1757600080fd5b826002811115610b2357fe5b600c60006101000a81548160ff02191690836002811115610b4057fe5b0217905550610b4d611905565b600d819055506000600d54111515610b6157fe5b60006002811115610b6e57fe5b600c60009054906101000a900460ff166002811115610b8957fe5b1415610ba2576012600a0a603202600a81905550610bb9565b6000600a819055506012600a0a600f02600b819055505b81600881905550806009819055507f4dd4cf04e895ce390b33814a06c8087ae7225521c993fb47043f4507d3c7f2c0600c60009054906101000a900460ff1660085460095460405180846002811115610c0e57fe5b60ff168152602001838152602001828152602001935050505060405180910390a1505050565b6000806000809054906101000a900473ffffffffffffffffffffffffffffffffffffffff1673ffffffffffffffffffffffffffffffffffffffff163373ffffffffffffffffffffffffffffffffffffffff16141515610c9257600080fd5b600090505b8251811015610cd757610cc08382815181101515610cb157fe5b90602001906020020151610cdd565b15610cca57600191505b8080600101915050610c97565b50919050565b60008060009054906101000a900473ffffffffffffffffffffffffffffffffffffffff1673ffffffffffffffffffffffffffffffffffffffff163373ffffffffffffffffffffffffffffffffffffffff16141515610d3a57600080fd5b600160008373ffffffffffffffffffffffffffffffffffffffff1673ffffffffffffffffffffffffffffffffffffffff16815260200190815260200160002060009054906101000a900460ff1615610e4c576000600160008473ffffffffffffffffffffffffffffffffffffffff1673ffffffffffffffffffffffffffffffffffffffff16815260200190815260200160002060006101000a81548160ff0219169083151502179055507ff1abf01a1043b7c244d128e8595cf0c1d10743b022b03a02dffd8ca3bf729f5a82604051808273ffffffffffffffffffffffffffffffffffffffff1673ffffffffffffffffffffffffffffffffffffffff16815260200191505060405180910390a1600190505b919050565b600660009054906101000a900473ffffffffffffffffffffffffffffffffffffffff1681565b6000809054906101000a900473ffffffffffffffffffffffffffffffffffffffff1673ffffffffffffffffffffffffffffffffffffffff163373ffffffffffffffffffffffffffffffffffffffff16141515610ed257600080fd5b600260009054906101000a900460ff161515610eed57600080fd5b6000600260006101000a81548160ff0219169083151502179055507f7805862f689e2f13df9f062ff482ad3ad112aca9e0847911ed832e158c525b3360405160405180910390a1565b60075481565b600360009054906101000a900473ffffffffffffffffffffffffffffffffffffffff1681565b6000809054906101000a900473ffffffffffffffffffffffffffffffffffffffff1673ffffffffffffffffffffffffffffffffffffffff163373ffffffffffffffffffffffffffffffffffffffff16141515610fbd57600080fd5b60006002811115610fca57fe5b600c60009054906101000a900460ff166002811115610fe557fe5b141561108d57600e60009054906101000a900473ffffffffffffffffffffffffffffffffffffffff1673ffffffffffffffffffffffffffffffffffffffff1663d02e140a6040518163ffffffff167c0100000000000000000000000000000000000000000000000000000000028152600401602060405180830381600087803b151561107057600080fd5b5af1151561107d57600080fd5b505050604051805190505061115a565b6001600281111561109a57fe5b600c60009054906101000a900460ff1660028111156110b557fe5b141561115957600e60009054906101000a900473ffffffffffffffffffffffffffffffffffffffff1673ffffffffffffffffffffffffffffffffffffffff1663a0a6e9406040518163ffffffff167c0100000000000000000000000000000000000000000000000000000000028152600401602060405180830381600087803b151561114057600080fd5b5af1151561114d57600080fd5b50505060405180519050505b5b426009819055507f71c5ed43fa42552b032a720943e16971c0ef01f33c18d0c8c6d982a5e8b4668c600c60009054906101000a900460ff16604051808260028111156111a257fe5b60ff16815260200191505060405180910390a1565b600260009054906101000a900460ff1681565b60008060009054906101000a900473ffffffffffffffffffffffffffffffffffffffff1673ffffffffffffffffffffffffffffffffffffffff163373ffffffffffffffffffffffffffffffffffffffff1614151561122757600080fd5b600160008373ffffffffffffffffffffffffffffffffffffffff1673ffffffffffffffffffffffffffffffffffffffff16815260200190815260200160002060009054906101000a900460ff1615156113395760018060008473ffffffffffffffffffffffffffffffffffffffff1673ffffffffffffffffffffffffffffffffffffffff16815260200190815260200160002060006101000a81548160ff0219169083151502179055507fd1bba68c128cc3f427e5831b3c6f99f480b6efa6b9e80c757768f6124158cc3f82604051808273ffffffffffffffffffffffffffffffffffffffff1673ffffffffffffffffffffffffffffffffffffffff16815260200191505060405180910390a1600190505b919050565b6000809054906101000a900473ffffffffffffffffffffffffffffffffffffffff1673ffffffffffffffffffffffffffffffffffffffff163373ffffffffffffffffffffffffffffffffffffffff1614151561139957600080fd5b600260009054906101000a900460ff161515156113b557600080fd5b6001600260006101000a81548160ff0219169083151502179055507f6985a02210a168e66602d3235cb6db0e70f92b3ba4d376a33c0f3d9434bff62560405160405180910390a1565b6000809054906101000a900473ffffffffffffffffffffffffffffffffffffffff1681565b60016020528060005260406000206000915054906101000a900460ff1681565b600260019054906101000a900473ffffffffffffffffffffffffffffffffffffffff1681565b600460009054906101000a900473ffffffffffffffffffffffffffffffffffffffff1681565b60085481565b600d5481565b6000809054906101000a900473ffffffffffffffffffffffffffffffffffffffff1673ffffffffffffffffffffffffffffffffffffffff163373ffffffffffffffffffffffffffffffffffffffff161415156114f657600080fd5b600e60009054906101000a900473ffffffffffffffffffffffffffffffffffffffff1673ffffffffffffffffffffffffffffffffffffffff1663258b5c068484846040518463ffffffff167c0100000000000000000000000000000000000000000000000000000000028152600401808481526020018381526020018281526020019350505050602060405180830381600087803b151561159657600080fd5b5af115156115a357600080fd5b5050506040518051905050505050565b6000806000809054906101000a900473ffffffffffffffffffffffffffffffffffffffff1673ffffffffffffffffffffffffffffffffffffffff163373ffffffffffffffffffffffffffffffffffffffff1614151561161157600080fd5b600090505b82518110156116565761163f838281518110151561163057fe5b906020019060200201516111ca565b1561164957600191505b8080600101915050611616565b50919050565b6000809054906101000a900473ffffffffffffffffffffffffffffffffffffffff1673ffffffffffffffffffffffffffffffffffffffff163373ffffffffffffffffffffffffffffffffffffffff161415156116b757600080fd5b600073ffffffffffffffffffffffffffffffffffffffff168173ffffffffffffffffffffffffffffffffffffffff16141515156116f357600080fd5b8073ffffffffffffffffffffffffffffffffffffffff166000809054906101000a900473ffffffffffffffffffffffffffffffffffffffff1673ffffffffffffffffffffffffffffffffffffffff167f8be0079c531659141344cd1fd0a4f28419497f9722a3daafe3b4186f6b6457e060405160405180910390a3806000806101000a81548173ffffffffffffffffffffffffffffffffffffffff021916908373ffffffffffffffffffffffffffffffffffffffff16021790555050565b600e60009054906101000a900473ffffffffffffffffffffffffffffffffffffffff1681565b60008060028111156117e557fe5b600c60009054906101000a900460ff16600281111561180057fe5b141561183057600460009054906101000a900473ffffffffffffffffffffffffffffffffffffffff1690506118e4565b6001600281111561183d57fe5b600c60009054906101000a900460ff16600281111561185857fe5b141561188857600560009054906101000a900473ffffffffffffffffffffffffffffffffffffffff1690506118e4565b60028081111561189457fe5b600c60009054906101000a900460ff1660028111156118af57fe5b14156118df57600660009054906101000a900473ffffffffffffffffffffffffffffffffffffffff1690506118e4565b600090505b90565b60008082840190508381101515156118fb57fe5b8091505092915050565b600080600281111561191357fe5b600c60009054906101000a900460ff16600281111561192e57fe5b141561193e576132c890506119b2565b6001600281111561194b57fe5b600c60009054906101000a900460ff16600281111561196657fe5b14156119765761261690506119b2565b60028081111561198257fe5b600c60009054906101000a900460ff16600281111561199d57fe5b14156119ad576121de90506119b2565b600090505b905600a165627a7a72305820c740293ba626325962d9b0c218cb75af8ff551d7411c06acf86253d7a5a95d270029",
  "source": "pragma solidity ^0.4.18;\r\n\r\nimport 'zeppelin-solidity/contracts/math/SafeMath.sol';\r\nimport \"zeppelin-solidity/contracts/ownership/Whitelist.sol\";\r\nimport \"zeppelin-solidity/contracts/lifecycle/Pausable.sol\";\r\nimport \"./TTTToken.sol\";\r\n\r\ncontract TTTTokenSell is Whitelist, Pausable {\r\n\tusing SafeMath for uint;\r\n\r\n\t// TTTToken contract address\r\n\taddress public tokenAddress;\r\n\taddress public wallet;\r\n\taddress public privatesaleAddress;\r\n\taddress public presaleAddress;\r\n\taddress public crowdsaleAddress;\r\n\r\n\t// Amount of wei currently raised\r\n\tuint256 public weiRaised;\r\n\r\n\t// Variables for phase start/end\r\n\tuint256 public startsAt;\r\n\tuint256 public endsAt;\r\n\tuint ethMin;\r\n\tuint ethMax;\r\n\r\n\tenum CurrentPhase { Privatesale, Presale, Crowdsale }\r\n\r\n\tCurrentPhase currentPhase;\r\n\tuint public currentPhaseRate;\r\n\r\n\tTTTToken public token;\r\n\r\n\tevent AmountRaised(address beneficiary, uint amountRaised);\r\n\tevent TokenPurchased(address indexed purchaser, uint256 value, uint256 amount);\r\n\tevent TokenPhaseStarted(CurrentPhase phase, uint256 startsAt, uint256 endsAt);\r\n\tevent TokenPhaseEnded(CurrentPhase phase);\r\n\r\n\tmodifier tokenPhaseIsActive() {\r\n\t\tassert(now >= startsAt && now <= endsAt);\r\n\t\t_;\r\n\t}\r\n\r\n\tfunction TTTTokenSell(address _tokenAddress) {\r\n\t\twallet = 0xea2d2c0223af6e9c83db343aef2194564b27ee87;\r\n\r\n\t\tprivatesaleAddress = 0x6876b854Bc0E2c59dc448949d1Caa5BF5bb08F54;\r\n\t\tpresaleAddress = 0xcab76A29D35cc2f6B481112157675486180A560B;\r\n\t\tcrowdsaleAddress = 0xb6d40Fb512e7c824c6a33861b233eE50c263A950;\r\n\r\n\t\ttokenAddress = _tokenAddress;\r\n\t\ttoken = TTTToken(tokenAddress);\r\n\r\n\t\tstartsAt = 0;\r\n\t\tendsAt = 0;\r\n\t\tethMin = 0;\r\n\t\tethMax = 10000 * 10**uint(18);\r\n\t}\r\n\r\n\tfunction startPhase(uint _phase, uint256 _startsAt, uint256 _endsAt) external onlyOwner {\r\n\t\trequire(_phase >= 0 && _phase <= 2);\r\n\t\trequire(_startsAt > endsAt && _endsAt > _startsAt);\r\n\t\tcurrentPhase = CurrentPhase(_phase);\r\n\t\tcurrentPhaseRate = getPhaseRate();\r\n\t\tassert(currentPhaseRate > 0);\r\n\t\tif(currentPhase == CurrentPhase.Privatesale) ethMin = 50 * 10**uint(18);\r\n\t\telse {\r\n\t\t\tethMin = 0;\r\n\t\t\tethMax = 15 * 10**uint(18);\r\n\t\t}\r\n\t\tstartsAt = _startsAt;\r\n\t\tendsAt = _endsAt;\r\n\t\tTokenPhaseStarted(currentPhase, startsAt, endsAt);\r\n\t}\r\n\r\n\tfunction buyTokens(address _to) tokenPhaseIsActive whenNotPaused payable {\r\n\t\trequire(whitelist[_to]);\r\n\t\trequire(msg.value >= ethMin && msg.value <= ethMax);\r\n\t\trequire(_to != 0x0);\r\n\t\taddress from = getPhaseAddress();\r\n\t\tassert(from != 0x0);\r\n\t\tuint256 weiAmount = msg.value;\r\n\t\tuint256 tokens = weiAmount * currentPhaseRate;\r\n\t\tweiRaised = weiRaised.add(weiAmount);\r\n\t\twallet.transfer(weiAmount);\r\n\t\tif(!token.transferFromTokenSell(_to, from, tokens)) revert();\r\n\t\tTokenPurchased(_to, tokens, weiAmount);\r\n\t}\r\n\r\n\t// To contribute, send a value transaction to the token sell Address.\r\n\t// Please include at least 100 000 gas.\r\n\tfunction () payable {\r\n\t\tbuyTokens(msg.sender);\r\n\t}\r\n\r\n\tfunction getPhaseAddress() internal returns (address phase) {\r\n\t\tif(currentPhase == CurrentPhase.Privatesale)\r\n\t\t\treturn privatesaleAddress;\r\n\t\telse if(currentPhase == CurrentPhase.Presale)\r\n\t\t\treturn presaleAddress;\r\n\t\telse if(currentPhase == CurrentPhase.Crowdsale)\r\n\t\t\treturn crowdsaleAddress;\r\n\t\treturn 0x0;\r\n\t}\r\n\r\n\t// Amount of TTT per 1 ether. Will be updated closed to deployment\r\n\tfunction getPhaseRate() internal returns (uint rate) {\r\n\t\tif(currentPhase == CurrentPhase.Privatesale)\r\n\t\t\treturn 13000;\r\n\t\telse if(currentPhase == CurrentPhase.Presale)\r\n\t\t\treturn 9750;\r\n\t\telse if(currentPhase == CurrentPhase.Crowdsale)\r\n\t\t\treturn 8670;\r\n\t\treturn 0;\r\n\t}\r\n\r\n\tfunction finalizePhase() external onlyOwner {\r\n\t\tif(currentPhase == CurrentPhase.Privatesale)\r\n\t\t\ttoken.finalizePrivatesale();\r\n\t\telse if(currentPhase == CurrentPhase.Presale)\r\n\t\t\ttoken.finalizePresale();\r\n\t\tendsAt = block.timestamp;\r\n\t\tTokenPhaseEnded(currentPhase);\r\n\t}\r\n\r\n\tfunction finalizeIto(uint256 _burnAmount, uint256 _ecoAmount, uint256 _airdropAmount) external onlyOwner {\r\n\t\ttoken.finalizeCrowdsale(_burnAmount, _ecoAmount, _airdropAmount);\r\n\t}\r\n}\r\n",
  "sourcePath": "C:\\TTTToken\\contracts\\TTTTokenSell.sol",
  "compiler": {
    "name": "solc",
    "version": "0.4.21+commit.dfe3193c.Emscripten.clang"
  },
  "schemaVersion": "2.0.0",
  "updatedAt": "2018-04-07T14:56:08.403Z"
}